:040000007CEF00F0A1
:060008005C8256EF0FF0D0
:100018005C80D8CFACF0E8CFADF0E0CFAEF0FACF4F
:10002800AFF0FBCFB0F0E9CFB1F0EACFB2F0E1CF5B
:10003800B3F0E2CFB4F0D9CFB5F0DACFB6F0F3CF62
:10004800B7F0F4CFB8F0F6CFB9F0F7CFBAF0F8CFF1
:10005800BBF0F5CFBCF05CC0BDF05DC0BEF05EC0CB
:10006800BFF05FC0C0F09EA007D0FE0ECF6E180E86
:10007800CE6E9E900001A92B9EA402D08B9A9E94CE
:10008800A1A20AD05B50BF6E5AC0BEFF8A0EB36EE3
:10009800D00EB26E8B8AA192C0C05FF0BFC05EF076
:1000A800BEC05DF0BDC05CF0BCC0F5FFBBC0F8FFD2
:1000B800BAC0F7FFB9C0F6FFB8C0F4FFB7C0F3FF86
:1000C800B6C0DAFFB5C0D9FFB4C0E2FFB3C0E1FFE4
:1000D800B2C0EAFFB1C0E9FFB0C0FBFFAFC0FAFF92
:1000E800AEC0E0FFADC0E8FFACC0D8FF5C90100028
:0400F80096EF16F079
:1003000000C60380034C03090309024300020100F5
:10031000C03209040000010202010005240010019E
:10032000042402020524060001052401000107053A
:10033000810308000209040100020A000000070509
:10034000020240000007058202400000340343001F
:10035000440043002000520053002D0032003300BF
:100360003200200045006D0075006C0061007400D3
:1003700069006F006E002000440065006D006F0092
:1003800034034D006900630072006F006300680071
:1003900069007000200054006500630068006E0072
:1003A0006F006C006F0067007900200049006E004C
:1003B00063002E00120100020200000877070A0005
:1003C0000001010200010403090431442000324409
:1003D000200031572000325720004F0050005100BC
:0103E000001C
:1003E200000ED36E000E7E6E000E7F6E200E926E99
:1003F200000E936E000E806E000E816E000E826EF5
:10040200CDEC0BF0000E0101BC6F000EBB6F000EB5
:10041200B86F000EB76F030E0001EA6F700ED36E55
:10042200000E8B6E800E946E840ED56EF184F29463
:10043200F28AB10ECD6E9F909E90B90EB16E0A0EE9
:10044200BD6E9F949E949D848D0EBF6EBE0EBE6E39
:10045200A292A192A082D08EF28EF28CD9EC1AF0E6
:100462008CEC0AF0010E7DEC19F0020E0101B66F60
:10047200380EB56FAD0EE82EFED7B52FFCD7B62FCE
:10048200FAD7020E7DEC19F0200E0101B56F290E8C
:10049200E82EFED7B52FFCD700D0E0EC1AF0020E02
:1004A2007DEC19F09B0E0001C66F010EC76FE3ECE5
:1004B20018F0020E0001EA6F0001A05105E10A0ED8
:1004C2009F5DD8A0CCEF06F0000EA06F000E9F6FCC
:1004D2009D4B9E2B434A442A060E43184410D8A42F
:1004E20006D0000E446E000E436E000EA86F974BAE
:1004F200982B0A0E97199811D8A404D0000E986F61
:10050200000E976F3C0E9D199E11D8A406D0000EC6
:100512009E6F000E9D6F9B4B9C2B3C0E9B199C115A
:10052200D8A406D0000E9C6F000E9B6F994B9A2B9D
:10053200860E7DEC19F099C0CDF09AC0CEF09BC02A
:10054200CFF09CC0D0F09DC0D1F09EC0D2F02DEC77
:100552000BF0C30E7DEC19F0D0EC11F0C00E7DEC67
:1005620019F0A1C0C1F0A2C0C2F00001C36BC46BFC
:10057200000EE2EC09F0C1C0CFF0C2C0D0F0C3C09F
:10058200D1F0C4C0D2F0000E0001D36F000ED46FC0
:10059200A00ED56F430ED66F35EC0EF00001D8B029
:1005A20008D0CA0EC66F030EC76FE3EC18F08B8635
:1005B20008D0D20E0001C66F030EC76FE3EC18F02D
:1005C2008B96CB0E7DEC19F053EC11F0C80E7DEC3E
:1005D20019F00001955141240101B56F00019651B6
:1005E20042200101B66FB5510001975D0101B6517C
:1005F20000019859D8B008D0CE0EC66F030EC76F4F
:10060200E3EC18F08B8808D0D60E0001C66F030EFB
:10061200C76FE3EC18F08B98CF0E7DEC19F082AE29
:1006220027D0000E0001E96F95519611D8A407D08A
:10063200DA0EC66F030EC76FE3EC18F03FD000016D
:1006420095059611D8A407D0DC0EC66F030EC76FAE
:10065200E3EC18F033D0020E000195199611D8A4DC
:100662002DD0DE0EC66F030EC76FE3EC18F026D056
:10067200010E0001E96F95519611D8A407D0DA0E48
:10068200C66F030EC76FE3EC18F018D00001950592
:100692009611D8A407D0DC0EC66F030EC76FE3EC29
:1006A20018F00CD0020E000195199611D8A406D0AC
:1006B200DE0EC66F030EC76FE3EC18F00001E9050A
:1006C200D8A4BFD1000ED76F000ED86F140ED96F09
:1006D200440EDA6FA3C0C1F0A4C0C2F0000EC2BFC4
:1006E200FF0EC36FC46F010EE2EC09F0C1C0CFF080
:1006F200C2C0D0F0C3C0D1F0C4C0D2F039EC1AF0FD
:10070200CFC0D3F0D0C0D4F0D1C0D5F0D2C0D6F093
:1007120017EC07F0D3C0BDF1D4C0BEF1D5C0BFF114
:10072200D6C0C0F1BDC1D7F0BEC1D8F0BFC1D9F0AB
:10073200C0C1DAF093C0C1F094C0C2F00001000E53
:10074200C2BFFF0EC36FC46F010EE2EC09F0C1C05D
:10075200D3F0C2C0D4F0C3C0D5F0C4C0D6F017ECF9
:1007620007F0D3C0ADF1D4C0AEF1D5C0AFF1D6C061
:10077200B0F1D6EC10F0ADC193F0AEC194F000012F
:1007820094BF0AD0110E935D270E9459D8A004D0BD
:10079200270E946F100E0BD094BF06D0B80E935D47
:1007A2000B0E9459D8B004D00B0E946FB80E936F01
:1007B20094BF06D0810E935D250E9459D8B006D011
:1007C20094BF04D0C10E935D120E9459000E966F21
:1007D200000E956FA3C0C1F0A4C0C2F0C36BC46B7E
:1007E200000EE2EC09F0C1C0CFF0C2C0D0F0C3C02D
:1007F200D1F0C4C0D2F0000E0001D36F000ED46F4E
:10080200160ED56F440ED66F35EC0EF00001D8B03F
:1008120002D0010E05D0000E426E000E416E020E95
:10082200EA6FA3C0C1F0A4C0C2F0C36BC46B000ED8
:10083200E2EC09F0C1C0CFF0C2C0D0F0C3C0D1F029
:10084200C4C0D2F0000E0001D36F000ED46F0A0EA6
:10085200D56F440ED66F35EC0EF00001D8B004D03F
:10086200000E426E0A0E68D0A3C0C1F0A4C0C2F04E
:10087200C36BC46B000EE2EC09F0C1C0CFF0C2C082
:10088200D0F0C3C0D1F0C4C0D2F0000E0001D36FCB
:10089200000ED46F0C0ED56F440ED66F35EC0EF0F1
:1008A2000001D8B004D0000E426E080E45D0A3C09D
:1008B200C1F0A4C0C2F0C36BC46B000EE2EC09F03D
:1008C200C1C0CFF0C2C0D0F0C3C0D1F0C4C0D2F01A
:1008D200000E0001D36F000ED46F0E0ED56F440EC2
:1008E200D66F35EC0EF00001D8B004D0000E426E87
:1008F200060E22D0A3C0C1F0A4C0C2F0C36BC46B69
:10090200000EE2EC09F0C1C0CFF0C2C0D0F0C3C00B
:10091200D1F0C4C0D2F0000E0001D36F000ED46F2C
:10092200120ED56F440ED66F35EC0EF00001D8B022
:1009320004D0000E426E040E416EA3C0C1F0A4C0EA
:10094200C2F0C36BC46B000EE2EC09F0C1C0CFF081
:10095200C2C0D0F0C3C0D1F0C4C0D2F0000E0001BA
:10096200D36F000ED46F100ED56F440ED66F35ECD8
:100972000EF00001D8A005D2A3C0C1F0A4C0C2F0FD
:10098200C36BC46B000EE2EC09F0C1C0CFF0C2C071
:10099200D0F0C3C0D1F0C4C0D2F0330E0001D36F87
:1009A200330ED46F130ED56F440ED66F35EC0EF0A6
:1009B2000001D8B004D0000E426E030EE1D1A3C0F4
:1009C200C1F0A4C0C2F0C36BC46B000EE2EC09F02C
:1009D200C1C0CFF0C2C0D0F0C3C0D1F0C4C0D2F009
:1009E200CD0E0001D36FCC0ED46F140ED56F440E12
:1009F200D66F35EC0EF00001D8A0BFD1A3C0C1F074
:100A0200A4C0C2F0C36BC46B000EE2EC09F0C1C01B
:100A1200CFF0C2C0D0F0C3C0D1F0C4C0D2F0000E3B
:100A22000001D36F000ED46F160ED56F440ED66F31
:100A320035EC0EF00001D8B0A4D1000E426E010ECA
:100A42009FD1000ED76F000ED86F160ED96F440ECD
:100A5200DA6FA3C0C1F0A4C0C2F0000EC2BFFF0E85
:100A6200C36FC46F010EE2EC09F0C1C0CFF0C2C087
:100A7200D0F0C3C0D1F0C4C0D2F039EC1AF0CFC06C
:100A8200D3F0D0C0D4F0D1C0D5F0D2C0D6F017EC9C
:100A920007F0D3C0BDF1D4C0BEF1D5C0BFF1D6C0FE
:100AA200C0F1BDC1D7F0BEC1D8F0BFC1D9F0C0C13D
:100AB200DAF093C0C1F094C0C2F00001000EC2BFD0
:100AC200FF0EC36FC46F010EE2EC09F0C1C0D3F098
:100AD200C2C0D4F0C3C0D5F0C4C0D6F017EC07F042
:100AE200D3C0ADF1D4C0AEF1D5C0AFF1D6C0B0F134
:100AF200D6EC10F0ADC193F0AEC194F0000194BFFA
:100B02000AD0110E935D270E9459D8A004D0270E57
:100B1200946F100E0BD094BF06D0B80E935D0B0EDF
:100B22009459D8B004D00B0E946FB80E936F94BF43
:100B320006D0810E935D250E9459D8B006D094BF8D
:100B420004D0C10E935D120E9459000E966F000EE2
:100B5200956FA3C0C1F0A4C0C2F0C36BC46B000EFA
:100B6200E2EC09F0C1C0CFF0C2C0D0F0C3C0D1F0F6
:100B7200C4C0D2F0000E0001D36F000ED46F160E67
:100B8200D56F440ED66F35EC0EF00001D8B002D00E
:100B9200010E05D0000E426E000E416E020EEA6F8B
:100BA200A3C0C1F0A4C0C2F0C36BC46B000EE2ECE0
:100BB20009F0C1C0CFF0C2C0D0F0C3C0D1F0C4C0F0
:100BC200D2F0000E0001D36F000ED46F0C0ED56F61
:100BD200440ED66F35EC0EF00001D8B004D0000EF2
:100BE200426E0A0E68D0A3C0C1F0A4C0C2F0C36BAB
:100BF200C46B000EE2EC09F0C1C0CFF0C2C0D0F06D
:100C0200C3C0D1F0C4C0D2F0000E0001D36F000EF9
:100C1200D46F0E0ED56F440ED66F35EC0EF0000178
:100C2200D8B004D0000E426E080E45D0A3C0C1F069
:100C3200A4C0C2F0C36BC46B000EE2EC09F0C1C0E9
:100C4200CFF0C2C0D0F0C3C0D1F0C4C0D2F0000E09
:100C52000001D36F000ED46F100ED56F440ED66F05
:100C620035EC0EF00001D8B004D0000E426E060E34
:100C720022D0A3C0C1F0A4C0C2F0C36BC46B000EEB
:100C8200E2EC09F0C1C0CFF0C2C0D0F0C3C0D1F0D5
:100C9200C4C0D2F0000E0001D36F000ED46F120E4A
:100CA200D56F440ED66F35EC0EF00001D8B004D0EB
:100CB200000E426E040E416EA3C0C1F0A4C0C2F089
:100CC200C36BC46B000EE2EC09F0C1C0CFF0C2C02E
:100CD200D0F0C3C0D1F0C4C0D2F0000E0001D36F77
:100CE200000ED46F120ED56F440ED66F35EC0EF097
:100CF2000001D8A046D0A3C0C1F0A4C0C2F0C36B0B
:100D0200C46B000EE2EC09F0C1C0CFF0C2C0D0F05B
:100D1200C3C0D1F0C4C0D2F0000E0001D36F000EE8
:100D2200D46F140ED56F440ED66F35EC0EF0000161
:100D3200D8B004D0000E426E040E22D0A3C0C1F07F
:100D4200A4C0C2F0C36BC46B000EE2EC09F0C1C0D8
:100D5200CFF0C2C0D0F0C3C0D1F0C4C0D2F0000EF8
:100D62000001D36F000ED46F160ED56F440ED66FEE
:100D720035EC0EF00001D8B004D0000E426E020E27
:100D8200416E9F51A011D8A406D0AB51D8B41EEC2D
:100D92001AF0D9EC0FF00001EA05D8A43FD0A8510F
:100DA200D8A43CD0000EEA6F000E406E000E3F6EDB
:100DB20008D0D6CFB9F1D7CFBAF1D6CFB9F1D7CFC4
:100DC200BAF1D00E0101B95D8A0EBA59D8B0F1D785
:100DD200000E0001C26F010EC16F23EC18F0010179
:100DE200BCBF13D0BC5104E11B0EBB5DD8A00DD01B
:100DF200000EBC6F000EBB6FB71DB56FB81DB66F8E
:100E0200010EB515B76FB86B04D0030EBB27000EE9
:100E1200BC23010E0001A86F010EEA6F000EC26F23
:100E2200010EC16F23EC18F05DEF02F00001D65104
:100E3200800BE36FD651D625E56FD5BFE581E5512D
:100E4200D8B40DD0E529D8A408D0000ED36F000E77
:100E5200D46F000ED56F000ED66FD58F06D0000E60
:100E6200D36F000ED46F000ED56F000ED66FDA511D
:100E7200800BE46FE351E419D8A4E38DDA51DA254B
:100E8200E46FD9BFE481E451D8B40DD0E429D8A4E9
:100E920008D0000ED76F000ED86F000ED96F000E6B
:100EA200DA6FD98F06D0000ED76F000ED86F000E02
:100EB200D96F000EDA6FE551E45DD8B022D0E3AD10
:100EC20002D0800EE31BE5C0E6F0E4C0E5F0E6C028
:100ED200E4F0D3C0E6F0D7C0D3F0E6C0D7F0D4C078
:100EE200E6F0D8C0D4F0E6C0D8F0D5C0E6F0D9C05C
:100EF200D5F0E6C0D9F0D6C0E6F0DAC0D6F0E6C04A
:100F0200DAF0000EE66FE551DB6FDC6BDB1FDC1FF6
:100F1200DB4BDC2BE451DD6FDE6BDB51DD27DC517B
:100F2200DE23DEBF2CD0DE5104E11A0EDD5DD8A037
:100F320026D0D351D411D511D611D8B402D0010E76
:100F420001D0000EE66F000ED36F000ED46F000EBC
:100F5200D56F000ED66FE4C0E5F015D0E6A105D03E
:100F6200D890E6310109E66F02D0D890E633D3B1CA
:100F7200E68FD635D633D533D433D333E52BE4518C
:100F8200E55DD8A0EBD7E3BD29D0E551D8A409D0BF
:100F9200000ED36F000ED46F000ED56F000ED66F09
:100FA2001200D751D327D851D423D951D523DA519E
:100FB200D623D6A183D0E6A106D0D890E633E65157
:100FC2000109E66F02D0D890E633D3B1E68FD63569
:100FD200D633D533D433D333E52B70D0D751D35D49
:100FE200D851D459D951D559D651800ADB6FDA512B
:100FF200800ADB59D8B036D0D3C0DBF0D4C0DCF0E5
:10100200D5C0DDF0D6C0DEF0DB1FDC1FDD1FDE1F2A
:10101200DB2B000EDC23DD23DE23D751DB25DF6F44
:10102200D851DC21E06FD951DD21E16FDA51DE21A7
:10103200E26FFF0EDF25D36FFF0EE021D46FFF0EAC
:10104200E121D56FFF0EE221D66F800EE31BE66D24
:10105200E651D8A40FD0010ED327000ED423D523F6
:10106200D62308D0D751D35FD851D45BD951D55BA1
:10107200DA51D65BD351D411D511D611D8A41CD0D4
:10108200E651D8A419D0000ED36F000ED46F000E13
:10109200D56F000ED66F1200D890D337D437D5371C
:1010A200D637E6BFD381E6A102D0D88001D0D8904E
:1010B200E637E551D8A4E507D5AFEED7000EE46FC9
:1010C200E6AF0AD0E6C0DBF07F0EDB17D8A402D071
:1010D200D3A102D0010EE46FE451D8B420D0010EA6
:1010E200D327000ED423D523D623D6A118D0D3C01C
:1010F200DBF0D4C0DCF0D5C0DDF0D6C0DEF0DE35EA
:10110200DE33DD33DC33DB33DBC0D3F0DCC0D4F0E1
:10111200DDC0D5F0DEC0D6F0E529D8A4E52BE5295F
:10112200D8B403D0E551D8A40DD0000ED36F000E71
:10113200D46F000ED56F000ED66FE551D8A402D041
:10114200000EE36FE5A102D0D58F01D0D59FD890D4
:10115200E531D66FE3BFD68FD3C0D3F0D4C0D4F07D
:10116200D5C0D5F0D6C0D6F0120002013205D8A4FF
:1011720010D030511F0B0009D8A40BD00001778F7B
:10118200030E02013119D8A402D0010E01D0000EC3
:10119200536E3251D8A4120030511F0B020AD8A448
:1011A200120034510F0B0009D8B4120034510F0B46
:1011B200156E030E15601200200E0001AB19D8A4A3
:1011C2001200778F020134BF19D034510F0B156E04
:1011D2001550020D6E0EF324D96E000EF420DA6E55
:1011E200DECF19F0DDCF1AF034510F0B156E15500A
:1011F200010D800EF324D96E000E18D034510F0B5E
:10120200156E1550020D680EF324D96E000EF420EF
:10121200DA6EDECF19F0DDCF1AF034510F0B156EF6
:101222001550010D830EF324D96E000EF420DA6EF0
:10123200DF50186E18B002D0199401D0198434BF4F
:101242000AD034510F0B156E1550020D6E0EF32499
:10125200D96E000E09D034510F0B156E1550020DC8
:10126200680EF324D96E000EF420DA6E19C0DEFF88
:101272001AC0DDFF030E3119D8A427D019C0D9FF37
:101282001AC0DAFFDFAE1AD034BF0AD034510F0BC6
:10129200156E1550010D800EF324D96E000E0AD082
:1012A200020134510F0B156E1550010D830EF324FC
:1012B200D96E000EF420DA6E0001DF8219C0D9FF68
:1012C2001AC0DAFF840EDF121200040E191A19C0B6
:1012D200D9FF1AC0DAFFDFAE1BD019C0D9FF1AC07E
:1012E200DAFF7F0EDF1619C0D9FF1AC0DAFF000E2F
:1012F200DB8C000E0E6E050E0D6E19C00FF01AC0BB
:1013020010F0000E126E020E116EA2EC17F006D053
:1013120019C0D9FF1AC0DAFF000EDB8C040E191AAD
:1013220018B206D019C0D9FF1AC0DAFFDFAE30D02A
:10133200020134BF0AD034510F0B156E1550010D46
:10134200800EF324D96E000E0AD0020134510F0B25
:10135200156E1550010D830EF324D96E000EF42084
:10136200DA6E0001DF9219C0D9FF1AC0DAFF3B0E14
:10137200DF16000E0E6E050E0D6E19C00FF01AC0AC
:1013820010F0000E126E020E116EA2EC17F006D0D3
:1013920019C0D9FF1AC0DAFF3B0EDF160201345121
:1013A2000F0B156E1550010D530EF324166E0F0E12
:1013B200F420176E16C0D9FF17C0DAFFFE0EDF1633
:1013C20012000001C96F0001C951D8A4C4AF1AD0DC
:1013D200C1C0C5F0C2C0C6F0C3C0C7F0C4C0C8F027
:1013E200C51FC61FC71FC81FC52B000EC623C72394
:1013F200C823C5C0CBF0C6C0CCF0C7C0CDF0C8C0B2
:10140200CEF008D0C1C0CBF0C2C0CCF0C3C0CDF08A
:10141200C4C0CEF0C151C211C311C411D8A409D0A5
:10142200000EC16F000EC26F000EC36F000EC46FBC
:101432001200960ECA6F06D0CA2BD890CE33CD3387
:10144200CC33CB33000ECB15C56F000ECC15C66F57
:10145200000ECD15C76FFE0ECE15C86FC551C61151
:10146200C711C811D8B40DD0E7D7CA2B010ECB27AC
:10147200000ECC23CD23CE23D890CE33CD33CC3324
:10148200CB33000ECB15C56F000ECC15C66F000E08
:10149200CD15C76FFF0ECE15C86FC551C611C71146
:1014A200C811D8B407D0E1D7CA07D890CB37CC3708
:1014B200CD37CE37CDBF03D0020ECA61F5D7CAB140
:1014C20008D0FF0ECB17FF0ECC177F0ECD17FF0EE5
:1014D200CE17D890CA33CAC0C5F0C66BC76BC86BEB
:1014E200C5C0C8F0C76BC66BC56BC551CB13C6511F
:1014F200CC13C751CD13C851CE13C951D8A4C4AF10
:1015020001D0CE8FCBC0C1F0CCC0C2F0CDC0C3F0F1
:10151200CEC0C4F01200A00E0001CE6F860ECF6FB7
:10152200010ED06F000ED16F8CEC18F0190E000175
:10153200D76F5A0ED66FB10EE82EFED7D62FFCD734
:10154200D72FFAD700D0380E7DEC19F0020E000129
:10155200D76F380ED66FAD0EE82EFED7D62FFCD73A
:10156200D72FFAD7390E7DEC19F0020E0001D76F92
:10157200380ED66FAD0EE82EFED7D62FFCD7D72F5A
:10158200FAD7140E7DEC19F0020E0001D76F380E57
:10159200D66FAD0EE82EFED7D62FFCD7D72FFAD7AF
:1015A200730E7DEC19F0020E0001D76F380ED66F64
:1015B200AD0EE82EFED7D62FFCD7D72FFAD7520E74
:1015C2007DEC19F0020E0001D76F380ED66FAD0E0A
:1015D200E82EFED7D62FFCD7D72FFAD76C0E7DEC8C
:1015E20019F0100E0001D76F390ED66F0D0EE82ECE
:1015F200FED7D62FFCD7D72FFAD700D0380E7DECE6
:1016020019F0020E0001D76F380ED66FAD0EE82E1C
:10161200FED7D62FFCD7D72FFAD7010E7DEC19F0C3
:10162200020E0001D76F380ED66FAD0EE82EFED730
:10163200D62FFCD7D72FFAD70C0E7DEC19F0020E5D
:101642000001D76F380ED66FAD0EE82EFED7D62F1B
:10165200FCD7D72FFAD71200740E59EC19F06D0E81
:1016620059EC19F0000E0001C46F0A0EC36FCDC011
:10167200C1F0CEC0C2F0B9EC18F0C1C0C8F0C2C00F
:10168200C9F0000E0001CB6F0A0ECA6FA1EC19F06F
:101692000001C851300F7A6F7A5159EC19F0CDC060
:1016A200C8F0CEC0C9F0000E0001CB6F0A0ECA6F9F
:1016B200A1EC19F00001C851300F7B6F7B5159EC3E
:1016C20019F03A0E0001D36FD35159EC19F0000E04
:1016D2000001C46F0A0EC36FCFC0C1F0D0C0C2F008
:1016E200B9EC18F0C1C0C8F0C2C0C9F0000E0001C8
:1016F200CB6F0A0ECA6FA1EC19F00001C851300F6E
:101702007C6F7C5159EC19F0CFC0C8F0D0C0C9F041
:10171200000E0001CB6F0A0ECA6FA1EC19F0000196
:10172200C851300F7D6F7D5159EC19F03A0E00010E
:10173200D36FD35159EC19F0000E0001C46F0A0E99
:10174200C36FD1C0C1F0D2C0C2F0B9EC18F0C1C0B1
:10175200C8F0C2C0C9F0000E0001CB6F0A0ECA6FFA
:10176200A1EC19F00001C851300F7E6F7E5159EC87
:1017720019F0D1C0C8F0D2C0C9F0000E0001CB6F81
:101782000A0ECA6FA1EC19F00001C851300F7F6F29
:101792007F5159EC19F01200A094000E0F015F6FF7
:1017A200000E626E000E536F540E0001C16F0F0ED9
:1017B200C26F000EC46F000EC36F000EC66F020E22
:1017C200C56F51EC1AF0160E616E9F0E0F015B6F22
:1017D2007B0E606E000E0001C96F0B0EC96501D051
:1017E2000ED0C951040D000EF324D96E020EF4205E
:1017F200DA6EDE6ADE6ADE6ADD6AC92BEED7648CD7
:10180200000E0F015C6F6498649C0AD06296000E11
:101812000001776F000E636F000E656F000E646F3C
:1018220062B6F4D7010E4A6E010E496E000E486E82
:10183200000E476E000E526E000E0001C96F020EBE
:10184200C96501D02ED0C951020D680EF324D96E9C
:10185200000EF420DA6E000EDE6E000EDD6EC9514F
:10186200020D6E0EF324D96E000EF420DA6E000E15
:10187200DE6E000EDD6EC951010D830EF324D96EAA
:10188200000EF420DA6E000EDF6EC951010D800EDB
:10189200F324D96E000EF420DA6E000EDF6EC92B2F
:1018A200CED7080E686F020E696F160E0F01536FC6
:1018B200020E0201036F300E026F080E016F840EDA
:1018C200006F000E576E000E0001AB6F1200A09465
:1018D20000018F519011D8B40FD08FC0D9FF90C0A2
:1018E200DAFFDFAE03D0C86BC82B02D00001C86B91
:1018F200C851C96FCA6B04D0000ECA6F000EC96FFF
:10190200C951CA11D8B402D0A0841200030EAA1978
:10191200D8A402D0000EAA6FAA51D8A402D0A084E3
:101922001200020EAA19D8A413D0010EC16F000E24
:10193200C26F000EC36F000EC46F020EB5EC14F03E
:10194200C1C08FF0C2C090F0030E0001AA6F58D040
:10195200AA05D8A455D0200EA66503D0200ECC6FC0
:1019620002D0A6C0CCF0CC510008A625A66F600E0E
:10197200866F020E876FCCC0CBF0A551D8B410D0C1
:1019820022D089C0D9FF8AC0DAFF86C0E1FF87C0B2
:10199200E2FFDFCFE7FF864B872B894B8A2BCB07F2
:1019A200CB51D8B413D0EDD789C0D9FF8AC0DAFFA2
:1019B20086C0E1FF87C0E2FFDFCFE7FF864B872BC0
:1019C200894B8A2BCB07CB51D8A4EED7A651D8A4EA
:1019D20008D0200ECC19D8A402D0020E01D0030EDA
:1019E200AA6F010EC16F600EC26F020EC36FCCC030
:1019F200C4F0020EB5EC14F0C1C08FF0C2C090F07A
:101A0200A08412000001AB05D8B464BA06D0000E5F
:101A1200626E60806088020EAB6F62B460A402D016
:101A220069EC1AF064A202D0A194120062B060A024
:101A320007D09CEC0DF0A084040E0001AB6F629005
:101A420062B860A803D0AAEC1AF0629862AC18D00F
:101A520060AC0ED0000E0E6E730E0D6E000E0F6E89
:101A6200000E106E000E126E000E116EA2EC17F038
:101A7200629C4C50D8A44C064C50D8B465EC15F07E
:101A820062BA60AA02D002EC1AF062B260A210D06E
:101A92007F0E0E6E0D68000E0F6E000E106E000EA1
:101AA200126E000E116EA2EC17F0000E0F015F6FA6
:101AB200040E0001AB6102D0A194120060A639D0DD
:101AC200000E1E6E030E1E6401D033D062A631D00A
:101AD20063CF56F05630E832E8320F0B4E6E629604
:101AE20056B407D04E50010D800EF324D96E000E6D
:101AF20006D04E50010D830EF324D96E000EF42051
:101B0200DA6E0001DF704E50D8A403D02DEC13F032
:101B12000ED0000E0E6E720E0D6E560E0F6E000E71
:101B2200106E000E126E000E116EA2EC17F01E2A3D
:101B3200C9D7A1941200A094000E0F015F6F000E8E
:101B4200626E000E536F540E016E0F0E026E000E87
:101B5200046E000E036E000E066E020E056E80EC21
:101B62001AF0160E616E9F0E0F015B6F7B0E606E98
:101B7200000E096E0B0E096401D00ED00950040D3F
:101B8200000EF324D96E020EF420DA6EDE6ADE6AEB
:101B9200DE6ADD6A092AEED7648C000E0F015C6FE3
:101BA2006498649C0AD06296000E0001776F000E62
:101BB200636F000E656F000E646F62B6F4D7010E9C
:101BC2004A6E010E496E000E486E000E476E000E00
:101BD200526E000E096E020E096401D02ED0095019
:101BE200020D680EF324D96E000EF420DA6E000E98
:101BF200DE6E000EDD6E0950020D6E0EF324D96EFC
:101C0200000EF420DA6E000EDE6E000EDD6E09505C
:101C1200010D830EF324D96E000EF420DA6E000E4D
:101C2200DF6E0950010D800EF324D96E000EF420F0
:101C3200DA6E000EDF6E092ACED7080E0001686F39
:101C4200020E696F160E0F01536F020E0201036F2F
:101C5200300E026F080E016F840E006F000E576E79
:101C6200000E0001AB6F1200000E0001CF15D76FFE
:101C7200000ED015D86F800ED115D96F7F0ED215F8
:101C8200DA6FD751D811D911DA11D8A408D0000EC1
:101C9200CF6F000ED06F000ED16F000ED26F000E0C
:101CA200D315D76F000ED415D86F800ED515D96F06
:101CB2007F0ED615DA6FD751D811D911DA11D8A4FF
:101CC20008D0000ED36F000ED46F000ED56F000E39
:101CD200D66FD2AF1DD0CFC0D7F0D0C0D8F0D1C010
:101CE200D9F0D2C0DAF0D71FD81FD91FDA1FD72BED
:101CF200000ED823D923DA23000ED725CF6F000E8A
:101D0200D821D06F000ED921D16F800EDA21D26F87
:101D1200D6AF1DD0D3C0D7F0D4C0D8F0D5C0D9F03B
:101D2200D6C0DAF0D71FD81FD91FDA1FD72B000E63
:101D3200D823D923DA23000ED725D36F000ED8215A
:101D4200D46F000ED921D56F800EDA21D66F000E26
:101D5200CF1B000ED01B000ED11B800ED21B000E1B
:101D6200D31B000ED41B000ED51B800ED61BD351E5
:101D7200CF5DD451D059D551D159D651D259D8B0BD
:101D820002D0D8901200D8801200800E02013019C1
:101D9200D8A41200C00E0001776F7BD0B40E0001F0
:101DA200746F030E756F000E796F120E786F12004A
:101DB20002013251020D070EF324F66E030EF420D7
:101DC200F76E0900F5CF74F00A00F5CF75F0020E38
:101DD20000017425016E000E7521026E01C0F6FF2E
:101DE20002C0F7FFF86A020EF76403D00800F5504C
:101DF20005D0F6CFE1FFF7CFE2FFE7500001786FA1
:101E0200030E7425016E000E7521026E01C0F6FFED
:101E120002C0F7FFF86A020EF76403D00800F5501B
:101E220005D0F6CFE1FFF7CFE2FFE7500001796F6F
:101E32001200030E0201326124D03251020D010E52
:101E4200F324F66E030EF420F76E0900F5CF74F05A
:101E52000A00F5CF75F074C0F6FF75C0F7FFF86A97
:101E6200020EF76403D00800F55005D0F6CFE1FF6B
:101E7200F7CFE2FFE750016E01500001786F796BF6
:101E82001200000E0001776F1200000E0001776F42
:101E9200120002013351010AD8B480D7030AD8B420
:101EA20087D7010AD8B4C5D7F0D7FACF23F0FBCF32
:101EB20024F0E9CF25F0EACF26F0E1CF27F0E2CFF8
:101EC20028F0D9CF29F0DACF2AF0F3CF2BF0F4CFD4
:101ED2002CF0F6CF2DF0F7CF2EF0F8CF2FF0F5CF74
:101EE20030F05CC031F05DC032F05EC033F05FC0F4
:101EF20034F003EC0DF0F2A435D06D0ED76E840EE3
:101F0200D66EF29400019F4BA02B58045910D8A40E
:101F12000ED0E00E5A5C980E5B58D8B005D0190E60
:101F22005A26000E5B221ED0586859681BD0E70E55
:101F32001F6EFF0E206E5AC021F05BC022F01F50B0
:101F4200212620502222540E215C8E0E2258D8A027
:101F520005D0190E5A5E000E5B5A04D0000E596E5F
:101F6200010E586E34C05FF033C05EF032C05DF0D7
:101F720031C05CF030C0F5FF2FC0F8FF2EC0F7FF74
:101F82002DC0F6FF2CC0F4FF2BC0F3FF2AC0DAFFEE
:101F920029C0D9FF28C0E2FF27C0E1FF26C0EAFF1F
:101FA20025C0E9FF24C0FBFF23C0FAFF5C921100A9
:101FB20082A033EC19F01F0E0001AB65120064B26F
:101FC2001200AA51D8A43AD0640EC86F010EC96F8C
:101FD200080ECA6F59EC14F00001CE6F540E0101C5
:101FE2003C6F450E3D6F530E3E6F540E3F6F200EF9
:101FF200406F7AC041F17BC042F13A0E436F7CC020
:1020020044F17DC045F13A0E466F7EC047F17FC074
:1020120048F1200E496F8CC04AF18DC04BF12E0E53
:102022004C6F8EC04DF10A0E4E6F3C0E0001C16F17
:10203200010EC26F130EC36FBEEC1AF068EC0CF007
:102042000001AA51D8A430D0540E01013C6F450EB4
:102052003D6F530E3E6F540E3F6F200E406F7AC09D
:1020620041F17BC042F13A0E436F7CC044F17DC026
:1020720045F13A0E466F7EC047F17FC048F1200E0F
:10208200496F8CC04AF18DC04BF12E0E4C6F8EC041
:102092004DF10A0E4E6F3C0E0001C16F010EC26F70
:1020A200130EC36FBEEC1AF068EC0CF0120020EEB7
:1020B20001F03D50D9263E50DA22DF50046E045022
:1020C2000001645D000E6559D8A064C004F004509C
:1020D200016E026A011E021E014A022A6451012493
:1020E200646F65510220656F000E036E11D00350BC
:1020F200010D380EF324D96E020EF420DA6E60C0A0
:10210200E1FF61C0E2FFDFCFE7FF604B612B032AF3
:102112000450035CD8A0EBD764516511D8B426D023
:1021220020EE01F03B50D9263C50DA22080EDF6E39
:1021320020EE02F03B50D9263C50DA22380EDE6EF9
:10214200020EDD6E3DC0D9FF3EC0DAFFDFBC07D014
:102152003BC0D9FF3CC0DAFFC80EDF6E12003BC0A5
:10216200D9FF3CC0DAFF880EDF6E120020EE01F0CC
:102172003B50D9263C50DA22080EDF6E20EE02F0E8
:102182003B50D9263C50DA22300EDE6E020EDD6E56
:102192003BC0D9FF3CC0DAFF840EDF6E639F4B5019
:1021A200D8A4120065EC15F012000101AF35B0356C
:1021B2000001E86FE851D8A40AD0000E0101AD6F0A
:1021C200000EAE6F000EAF6F000EB06F1200ADC109
:1021D200B1F1AEC1B2F1AFC1B3F1B0C1B4F1200EF1
:1021E20006D00101D890B433B333B233B133E82E01
:1021F200F8D7B1510001E76F0101AF8FFF0EAD17A4
:10220200FF0EAE17FF0EAF17000EB017960E0001AD
:10221200E85FE8AF19D0E851800A970FD8B00AD02A
:10222200000E0101AD6F000EAE6F000EAF6F000E1B
:10223200B06F12000101D890B033AF33AE33AD337B
:102242000001E83FF7D719D01F0EE86512D0000E43
:102252000101AD6F000EAE6F000EAF6F000EB06FDA
:1022620012000101D890AD37AE37AF37B037000159
:10227200E8070001E851D8A4F4D7E751D8B409D04F
:102282000101B01FAF1FAE1FAD6D000EAE23AF2315
:10229200B023ADC1ADF1AEC1AEF1AFC1AFF1B0C1CE
:1022A200B0F11200920EFBEC13F0C4C0A3F0C5C053
:1022B200A4F0000E0001C46F0A0EC36FA3C0CDF0DC
:1022C200A4C0CEF0040ECF6FD890CE33CD33CF2F33
:1022D200FBD7CDC0C1F0CEC0C2F0B9EC18F0C1C07E
:1022E200C8F0C2C0C9F0000E0001CB6F0A0ECA6F5F
:1022F200A1EC19F0C8C0D0F0C9C0D1F00001D05192
:10230200300F8C6F8C5159EC19F0A3C0CDF0A4C0E2
:10231200CEF0040E0001CF6FD890CE33CD33CF2F45
:10232200FBD7CDC0C8F0CEC0C9F0000ECB6F0A0EED
:10233200CA6FA1EC19F0C8C0D0F0C9C0D1F0000139
:10234200D051300F8D6F8D5159EC19F02E0E59EC82
:1023520019F00F0E0001A315C16FC26B000EC46FFE
:102362000A0EC36F96EC1AF0C1C0D0F0C2C0D1F011
:10237200D0C0CDF0D1C0CEF0040E0001CF6FD89006
:10238200CE33CD33CF2FFBD7CDC0D0F0CEC0D1F0DE
:10239200D051300F8E6F8E5159EC19F012009E0EF3
:1023A200FBEC13F0C4C0A1F0C5C0A2F0000E000106
:1023B200C46F0A0EC36FA1C0CDF0A2C0CEF0040E4E
:1023C200CF6FD890CE33CD33CF2FFBD7CDC0C1F056
:1023D200CEC0C2F0B9EC18F0C1C0C8F0C2C0C9F09A
:1023E200000E0001CB6F0A0ECA6FA1EC19F0C8C033
:1023F200D0F0C9C0D1F00001D051300F8C6F8C5198
:1024020059EC19F0A1C0CDF0A2C0CEF0040E00012B
:10241200CF6FD890CE33CD33CF2FFBD7CDC0C8F0FE
:10242200CEC0C9F0000ECB6F0A0ECA6FA1EC19F034
:10243200C8C0D0F0C9C0D1F00001D051300F8D6FAB
:102442008D5159EC19F02E0E59EC19F00F0E0001B6
:10245200A115C16FC26B000EC46F0A0EC36F96EC5A
:102462001AF0C1C0D0F0C2C0D1F0D0C0CDF0D1C0FE
:10247200CEF0040E0001CF6FD890CE33CD33CF2FE4
:10248200FBD7CDC0D0F0CEC0D1F0D051300F8E6F7F
:102492008E5159EC19F012000001778F540E016E23
:1024A2000F0E026E000E046E000E036E000E066E1C
:1024B200020E056E80EC1AF0000E016E020E026E24
:1024C200000E046E000E036E000E066E300E056ED8
:1024D20080EC1AF0648C000E156E020E156401D0A9
:1024E20016D01550010D830EF324D96E000EF42080
:1024F200DA6E000EDF6E1550010D800EF324D96ED8
:10250200000EF420DA6E000EDF6E152AE6D7540EA6
:10251200016E000E026E000E046E000E036E000EBF
:10252200066E020E056E80EC1AF0649C080E000125
:10253200686F020E696F000E3D6E020E3E6E3DC068
:102542003BF03EC03CF032C257F05750D8A403D003
:10255200100EAB6F1200000E0E6E010E0D6E570EB6
:102562000F6E000E106E000E126E010E116EA2ECB6
:1025720017F0200E0001AB6F1200080E036E00016F
:10258200795110E1080E785DD8B00CD078C003F014
:102592005050D8A402D0010E04D05004D8A402D0C6
:1025A200020E506E0350016E026A011E021E014AA3
:1025B200022A78510124786F79510220796F20EE36
:1025C20001F06851D9266951DA2203C0DFFF380EC3
:1025D200396E020E3A6E77A11CD03AD074C0F6FF63
:1025E20075C0F7FFF86A39C0D9FF3AC0DAFF020EA8
:1025F200F76403D00800F55005D0F6CFE1FFF7CF1E
:10260200E2FFE750DF6E0001744B752B394A3A2A1C
:1026120003060350D8B41200E1D774C0F6FF75C0A8
:10262200F7FFF86A39C0D9FF3AC0DAFF020EF76441
:1026320003D00800F55005D0F6CFE1FFF7CFE2FF57
:10264200E750DF6E0001744B752B394A3A2A0306B4
:102652000350D8B41200E1D72D0E4C6E56C01BF0B9
:10266200FD0E1B16D8A457D056C01BF0D8901B32B3
:102672003F0E1B161B50040D000EF3243D6E020E7E
:10268200F4203E6E3DC03BF03EC03CF0040E3B1ACF
:102692003DC0D9FF3EC0DAFFDF30E8320F0B0D0A32
:1026A200D8A436D0000E1D6E070E1D6401D023D0B3
:1026B20020EE02F03D50D9263E50DA22DECF1BF04A
:1026C200DDCF1CF01BC0D9FF1CC0DAFF1D50010D6D
:1026D200300EF324E16E020EF420E26EDFCFE7FF4C
:1026E20020EE02F03D50D9263E50DA22DE2A000EBC
:1026F200DD221D2AD9D720EE02F03D50D9263E50C8
:10270200DA22300EDE6E020EDD6E60EC17F0120081
:102712000BEC19F012005650FD0B040AD8A412005B
:1027220005EC16F012006498000177BF2CD063AF5D
:102732000BD0020E4F6E4750D8B4DBEC16F0000EF1
:10274200496E000E4A6E120020EE01F03B50D9266F
:102752003C50DA22080EDF6E20EE02F03B50D92602
:102762003C50DA22300EDE6E020EDD6E3BC0D9FF27
:102772003CC0DAFF8C0EDF6E68C0D9FF69C0DAFF99
:10278200840EDF6E1200020130AF10D0010E4F6EC8
:102792004850D8B4DBEC16F0000E496E000E4A6EBB
:1027A2004B50D8A4120065EC15F01200020E4F6EC9
:1027B20020EE01F03B50D9263C50DA22080EDF6EA3
:1027C20020EE02F03B50D9263C50DA22300EDE6E6B
:1027D200020EDD6E3BC0D9FF3CC0DAFF840EDF6E15
:1027E200000E496E000E4A6E4B50D8A4120065ECE2
:1027F20015F012000001CA6FF5EC1AF0CAC0C2F05F
:102802000001C36BECEC1AF0000E0001C36F000E66
:10281200C26FECEC1AF0F5EC1AF0010ECAC0C6F069
:102822000001C76BC611C26FC751C36FECEC1AF03F
:102832004E0E0001C66FEB0EE82EFED7C62FFCD758
:102842009E96C586C5B6FED7C9CFCBF0C59AC588B8
:102852000001CB51C66FC76BC63BC73BF00EC71713
:10286200C6510F0BC713F00EC617C6C0C8F0C7C0BB
:10287200C9F0100E0001C66F940EE82EFED7C62FC7
:10288200FCD700F0C586C5B6FED7C9CFCBF0CBC00A
:10289200C6F00001C63B0F0EC617C651C813E7ECBF
:1028A2001AF0F1EC1AF0C8C0C4F0C9C0C5F01200A9
:1028B200000E0001A76F91519211D8B40FD091C0B0
:1028C200D9FF92C0DAFFDFAE03D0CB6BCB2B02D0A5
:1028D2000001CB6BCB51CC6FCD6B04D0000ECD6F12
:1028E200000ECC6FCC51CD11D8A43BD020EE01F01C
:1028F2009151D9269251DA22CA51DE5CD8B008D061
:1029020020EE01F09151D9269251DA22DF50CA6F9E
:10291200000EA76F13D0A751010D800EF324D96EBC
:10292200020EF420DA6EA751010DF350C825E16EB4
:10293200F450C921E26EDFCFE7FFA72BCA51A75D92
:10294200D8A0E9D7000EC16F800EC26F020EC36F0E
:10295200080EC46F020EB5EC14F0C1C091F0C2C0F3
:1029620092F00001A75112000001C56F0001C15190
:10297200D8B407D0C551020D680EF324D96E000EEB
:1029820006D0C551020D6E0EF324D96E000EF4204E
:10299200DA6EDECFC6F0DDCFC7F0C651C711D8A4BC
:1029A20005D0000EC16F000EC26F120020EE02F0C1
:1029B200C651D926C751DA22C2C0DEFFC3C0DDFF2D
:1029C20020EE01F0C651D926C751DA22C4C0DFFF7A
:1029D200C6C0D9FFC7C0DAFF400EDF16C6C0D9FF96
:1029E200C7C0DAFF880EDF12C151D8B407D0C55173
:1029F200020D680EF324D96E000E06D0C551020DE9
:102A02006E0EF324D96E000EF420DA6E040EDF1A75
:102A1200C6C0C1F0C7C0C2F01200056E0150D8B4E2
:102A220007D00550020D680EF324D96E000E06D0B1
:102A32000550020D6E0EF324D96E000EF420DA6EEC
:102A4200DECF06F0DDCF07F006500710D8A405D080
:102A5200000E016E000E026E120020EE02F0065011
:102A6200D9260750DA2202C0DEFF03C0DDFF20EEC6
:102A720001F00650D9260750DA2204C0DFFF06C053
:102A8200D9FF07C0DAFF400EDF1606C0D9FF07C024
:102A9200DAFF880EDF120150D8B407D00550020DBC
:102AA200680EF324D96E000E06D00550020D6E0E8C
:102AB200F324D96E000EF420DA6E040EDF1A06C07B
:102AC20001F007C002F012004A50D8A41200010E11
:102AD2004A6E4950D8A41200010E496E020E4F18D8
:102AE200D8A410D0000120EE01F06851D926695116
:102AF200DA22000EDF6E68C0D9FF69C0DAFFC80EA5
:102B0200DF6E12004F04D8A41200000E4D6E20EEAC
:102B120001F03D50D9263E50DA22080EDF6E20EE3B
:102B220002F03D50D9263E50DA22300EDE6E020E01
:102B3200DD6E3DC0D9FF3EC0DAFF840EDF6E010EAE
:102B42004D6E20EE01F03B50D9263C50DA22080EA1
:102B5200DF6E20EE02F03B50D9263C50DA22300ED6
:102B6200DE6E020EDD6E3BC0D9FF3CC0DAFF800E86
:102B7200DF6E1200066E000E076E020E086E015026
:102B8200026E036AD890023603360650046E056A56
:102B9200D89004360536D8900436053602500426FD
:102BA20003500522D89004360536D89004360536EF
:102BB200045007260550082207C0D9FF08C0DAFFD3
:102BC200DF9E0150D8A407D00650020D6E0EF324EA
:102BD200D96E000E06D00650020D680EF324D96E8F
:102BE200000EF420DA6E07C0DEFF08C0DDFF07C06A
:102BF200D9FF08C0DAFFDF9C20EE04F00750D92687
:102C02000850DA22DF8C120068C0D9FF69C0DAFFEF
:102C12000001000EDFBC010E046E040E681B080EDC
:102C2200AB19D8A40BD032C25CFF0F015C51D8B4EF
:102C320002D0100E01D0040E0001AB6F4F04D8A4D5
:102C420028D020EE02F06851D9266951DA22380ED6
:102C5200DE6E020EDD6EBEEC12F0020E5018D8A42B
:102C620007D068C0D9FF69C0DAFF840EDF6E120098
:102C72000450D8A407D068C0D9FF69C0DAFFC80ED3
:102C8200DF6E120068C0D9FF69C0DAFF880EDF6EFE
:102C9200120063BF639F000E4F6E120002013039B3
:102CA200E832030B0009D8A412001DD00001778F6F
:102CB200080EAB6F1200C6EC0EF012004DEC12F0D3
:102CC2001200B6EC08F01200000E0E6E020E0D6E2F
:102CD200000E0F6E000E106E000E126E000E116EC0
:102CE200A2EC17F0120002013151000AD8B412000E
:102CF200010AD8B4E6D7020AD8B4E3D7060AD8B490
:102D0200D5D7030AD8B4D7D7010AD8B4DDD70F0A6A
:102D1200D8B41200010AD8B4D1D7030AD8B4120029
:102D2200010AD8B41200070A1200860EF66E330E9C
:102D3200F76E000EF86E01EE6CF010EE41F0090035
:102D4200F5CFEEFFE550E150FAE1FC0EF66E350EDE
:102D5200F76E000EF86E0900F5CFE9F00900F5CF25
:102D6200EAF0F80EF66E350EF76E000EF86E00EE13
:102D720058F010EE04F00900F5CFEEFFE550E150F7
:102D8200FAE101EE00F06C0EEE6AE806FDE100EEFB
:102D920060F04C0EEE6AE806FDE100EE35F0230E1F
:102DA200EE6AE806FDE15C905C92000EF86E0001AE
:102DB200F1EF01F0000E486E000E476E020E4F1842
:102DC200D8A419D020EE01F03B50D9263C50DA228B
:102DD200080EDF6E20EE02F03B50D9263C50DA227C
:102DE200380EDE6E020EDD6E3BC0D9FF3CC0DAFF4C
:102DF200C80EDF6E1200000178510201365D00013B
:102E0200795102013759D8B004D036C278F037C2AE
:102E120079F0BEEC12F0000120EE02F06851D926E2
:102E22006951DA22380EDE6E020EDD6E68C0D9FFFD
:102E320069C0DAFFC80EDF6E1200000E0001C96F12
:102E4200000ECA6F000ECB6F000ECC6FC551C611BB
:102E5200C711C811D8B42AD0010ECD6F06D0D890B0
:102E6200C537C637C737C837CD2BC8AFF8D7D890C4
:102E7200C937CA37CB37CC37C551C15DC651C259E4
:102E8200C751C359C851C459D8A009D0C551C15F4F
:102E9200C651C25BC751C35BC851C45BC981D890DC
:102EA200C833C733C633C533CD2FE1D7C9C0C1F04C
:102EB200CAC0C2F0CBC0C3F0CCC0C4F01200000E36
:102EC200506E000E4B6E000E486E000E476E000EE6
:102ED2004D6E000E4F6E68C0D9FF69C0DAFF7F0EDB
:102EE200DF16040E0001681B68C0D9FF69C0DAFF53
:102EF2007F0EDF16040E681B3BC0D9FF3CC0DAFF11
:102F02007F0EDF16000E776F000E796F000E786F5E
:102F1200000E636F000E656F000E646F4FEC16F0CB
:102F2200000E0E6E030E0D6E000E0F6E000E106E72
:102F3200000E126E000E116EA2EC17F094EC13F05C
:102F4200120015D001EC1BF0120002EC1BF0120073
:102F520000EC1BF01200F9EC1AF0120003EC1BF06B
:102F6200120005EC1BF0120004EC1BF012000DC065
:102F720013F00EC014F01450000AD8B404D07F0A23
:102F8200D8A412001AD01350010AD8B4E4D7030A05
:102F9200D8B4E4D7010AD8B4E4D7060AD8B41200E8
:102FA200770AD8B41200010AD8B4CCD7070AD8B429
:102FB200CFD7010AD8A41200C8D71350FF0AD8A449
:102FC2001200D2D70001C56FF5EC1AF0C5C0C2F0ED
:102FD2000001C36BECEC1AF0100E0001C46F940EEA
:102FE200E82EFED7C42FFCD700F0000E0001C36FFD
:102FF200010EC26FECEC1AF0100E0001C46F940EB9
:10300200E82EFED7C42FFCD700F0000E0001C36FDC
:10301200000EC26FECEC1AF0100E0001C46F940E99
:10302200E82EFED7C42FFCD700F0E7EC1AF0F1EC43
:103032001AF09C0E0001C46FD70EE82EFED7C42FE3
:10304200FCD71200000E0001C76F000EC66F000E03
:10305200A96FFE0ECF6E120ECE6EFE0ECF6E120E48
:10306200CE6EFE0ECF6E120ECE6EFE0ECF6E120E14
:10307200CE6E9E909D800AD0C80EA919D8A406D003
:10308200C80EC627000EC723000EA96FA951C62578
:10309200C36F000EC721C46FC151C35DC451800A02
:1030A200C56FC251800AC559D8A0E6D79D901200BB
:1030B200000E0201886F4B0E896F000E8A6F000EA0
:1030C2008B6F000E8C6F000E8D6F080E8E6F000ED0
:1030D2000001A76F1A0E096E010EE4EC19F01E0E24
:1030E200096E020EE4EC19F0000E016E800E026E03
:1030F200020E036E080E046E020E0EEC15F001C0F5
:1031020091F002C092F0000E00018F6F000E906FDE
:10311200000EAA6F1200280EC66E000EC56E000EBB
:103122000001C16F6C0EC26FDC0EC36F020EC46F62
:10313200CEC0D2F0CFC0D3F0D0C0D4F0D1C0D5F041
:10314200020ED890D237D337D437D537E82EF9D7F5
:10315200D2C0C5F0D3C0C6F0D4C0C7F0D5C0C8F045
:103162001EEC17F00001C105C86E000EC76E1200FA
:10317200000E0001C76F000EC66FC351C411D8B450
:103182001CD0010EC56F04D0D890C337C437C52BED
:10319200C4AFFAD7D890C637C737C351C15DC4513F
:1031A200C259D8A005D0C351C15FC451C25BC68108
:1031B200D890C433C333C52FEDD7C6C0C1F0C7C042
:1031C200C2F01200000E0001CA6FCA51010DC6C042
:1031D200C8F0C7C0C9F0F350C827F450C923C8C00B
:1031E200F6FFC9C0F7FFF86A020EF76403D00800C1
:1031F200F55005D0F6CFE1FFF7CFE2FFE75000012F
:10320200CB6FCB51D8B41200CB5159EC19F000015D
:10321200CA2BDBD7020E4F18D8A403D058EC10F0FB
:103222001200000E4F6E4D50D8A419D020EE01F0BE
:103232003B50D9263C50DA22080EDF6E20EE02F017
:103242003B50D9263C50DA22300EDE6E020EDD6E85
:103252003BC0D9FF3CC0DAFF8C0EDF6E1200000EBD
:103262004D6E12005304D8A412005204D8A41200C6
:10327200A094FFEC1AF06492000E526E0E0E466E8F
:10328200100E456E4506D8A0460645504610D8A4F5
:10329200F9D76484070E466E080E456E4506D8A01F
:1032A200460645504610D8A4F9D76494A08412006B
:1032B2000001C56FF5EC1AF0000E0001C36F7C0E21
:1032C200C26FECEC1AF0000E0001C36F400EC26F29
:1032D200ECEC1AF0C5C0C2F00001C36BECEC1AF0C2
:1032E200F1EC1AF0100E0001C46F940EE82EFED716
:1032F200C42FFCD700F012000001C56FF5EC1AF0E4
:10330200000E0001C36F7C0EC26FECEC1AF0000ECF
:103312000001C36F000EC26FECEC1AF0C5C0C2F020
:103322000001C36BECEC1AF0F1EC1AF0100E000184
:10333200C46F940EE82EFED7C42FFCD700F0120003
:103342000001CA51CB11D8B418D0010ECC6F04D0F1
:10335200D890CA37CB37CC2BCBAFFAD7CA51C85D7E
:10336200CB51C959D8A004D0CA51C85FCB51C95B4F
:10337200D890CB33CA33CC2FF1D7C8C0C8F0C9C05C
:10338200C9F0120048656C6C6F322C205049432002
:10339200576F726C64210048656C6C6F312C205041
:1033A200494320576F726C64210057616B2D74651D
:1033B20063680048656C6C6F2C2050494320576F3E
:0533C200726C642100A3
:1033C8000C6E09A405D0000E016E0C50BBEC15F074
:1033D80009A205D0010E016E0C50BBEC15F00C5083
:1033E800010D530EF3240A6E0F0EF4200B6E0AC063
:1033F800D9FF0BC0DAFF09C0DFFF12000F0153A18C
:1034080017D03DC0D9FF3EC0DAFF800EDE18D8A421
:103418000ED068C0D9FF69C0DAFF840EDE18D8A4C0
:1034280006D03DC0D9FF3EC0DAFF8C0EDF6E539147
:10343800629A12000001AB51D8A41200000E646E0B
:10344800000E606E160E616E9F0E0F015B6F7B0E95
:10345800606ED08EA284A084F28E01D0648664A6A9
:10346800FDD7010E0001AB6F12000001CF51D01142
:10347800D111D211D8B408D0000ECF1B000ED01B2A
:10348800000ED11B800ED21BCFC0CFF0D0C0D0F021
:10349800D1C0D1F0D2C0D2F01200C1C0C7F0C2C0B2
:1034A800C8F009D0C7C0D9FFC8C0DAFFC3C0DFFF62
:1034B8000001C74BC82B0001C507D8A0C607C529FE
:1034C800F1E1C629D8B41200EDD7000E526E000EF5
:1034D8000E6E740E0D6E000E0F6E000E106E000E46
:1034E800126E000E116EA2EC17F06492609401D077
:1034F800629462A41200FCD701C007F002C008F071
:1035080008D007C0D9FF08C0DAFF03C0DFFF074AA9
:10351800082A0506D8A006060528F3E10628D8B427
:103528001200EFD70001C151C303F3CFC5F0F4CFA8
:10353800C6F0C151C403F350C627C251C303F350A8
:10354800C627C5C0C1F0C6C0C2F012006084629828
:103558006482010E526E000E0E6E750E0D6E000E18
:103568000F6E000E106E000E126E000E116EA2ECA1
:1035780017F01200A0940001AA51D8A40AD0C1C023
:1035880089F0C2C08AF0C3C0A6F0010EA56F010E73
:10359800AA6FA0841200C7B4FED7C5CFC1F01F0E12
:1035A8000001C117D8B41200F6D7700ED36E000E02
:1035B8007E6E500E936E12009E0EE3EC17F0920E84
:1035C800E3EC17F01200C58AC588C5A81200FDD71C
:1035D800CFEC1AF0C2C0C9FF1200CFEC1AF0C584B4
:1035E8001200CFEC1AF0C580120059EC18F0120046
:1035F8000100548E02031200120012001200120081
:04360800120012009A
:020000040030CA
:080000000035011EFF0081FF25
:00000001FF
