:0400000051EF00F0CC
:10000800FACFD9F0FBCFDAF0E9CFDBF019EF0DF03A
:10001800D8CF01F0E8CF02F0E0CF03F0FACF04F038
:10002800FBCF05F0E9CF06F0EACF07F0E1CF08F003
:10003800E2CF09F0D9CF0AF0DACF0BF0F3CF0CF00A
:10004800F4CF0DF0F6CF0EF0F7CF0FF0F8CF10F099
:10005800F5CF11F011C0F5FF10C0F8FF0FC0F7FF82
:100068000EC0F6FF0DC0F4FF0CC0F3FF0BC0DAFFA3
:100078000AC0D9FF09C0E2FF08C0E1FF07C0EAFFD4
:1000880006C0E9FF05C0FBFF04C0FAFF03C0E0FF9C
:0E00980002C0E8FF01C0D8FF100029EF0EF0F3
:1003000000C6034C038003090309024300020100F5
:10031000C03209040000010202010005240010019E
:10032000042402020524060001052401000107053A
:10033000810308000209040100020A000000070509
:1003400002024000000705820240000034034D0015
:100350006900630072006F0063006800690070004C
:10036000200054006500630068006E006F006C00A0
:100370006F0067007900200049006E0063002E00C6
:1003800034034300440043002000520053002D007A
:10039000320033003200200045006D0075006C0013
:1003A0006100740069006F006E0020004400650069
:1003B0006D006F001201000202000008D8040A005C
:1003C00000010102000104030904000002013205DA
:1003D000D8A411D0020130511F0B0009D8A40BD0B2
:1003E00000016B8F02013151030AD8A402D0010E23
:1003F00001D0000E3E6E0201326712000201305140
:100400001F0B020AD8A41200020134510F0B00097D
:10041000D8B41200020134510F0B286E030E285C71
:10042000D8B012004350200AD8A4120000016B8FEC
:10043000020134BF1FD0020134510F0B286E285027
:10044000020D0001740EF324D96E0001000EF42099
:10045000DA6EDECF2EF0DDCF2FF0020134510F0B1C
:10046000286E2850010D00017D0EF324D96E000185
:10047000000E1ED0020134510F0B286E2850020DC1
:1004800000016E0EF324D96E0001000EF420DA6E26
:10049000DECF2EF0DDCF2FF0020134510F0B286E8E
:1004A0002850010D00017A0EF324D96E0001000ED0
:1004B000F420DA6EDF502D6E2DB002D02E9401D0D4
:1004C0002E84020134BF0DD0020134510F0B286E6F
:1004D0002850020D0001740EF324D96E0001000EA5
:1004E0000CD0020134510F0B286E2850020D000170
:1004F0006E0EF324D96E0001000EF420DA6E2EC0C9
:10050000DEFF2FC0DDFF02013151030AD8A42DD038
:100510002EC0D9FF2FC0DAFFDFAE20D0020134BFDA
:100520000DD0020134510F0B286E2850010D00012F
:100530007D0EF324D96E0001000E0CD0020134515F
:100540000F0B286E2850010D00017A0EF324D96E8E
:100550000001000EF420DA6E0001DF822EC0D9FF08
:100560002FC0DAFF840EDF121200040E2E1A2EC0E6
:10057000D9FF2FC0DAFFDFAE1BD02EC0D9FF2FC0AE
:10058000DAFF7F0EDF162EC0D9FF2FC0DAFF000E74
:10059000DB8C000E216E050E206E2FC023F02EC0C6
:1005A00022F0000E256E020E246E9BEC0CF006D09D
:1005B0002EC0D9FF2FC0DAFF000EDB8C040E2E1ADE
:1005C0002DB206D02EC0D9FF2FC0DAFFDFAE35D056
:1005D000020134BF0DD0020134510F0B286E285098
:1005E000010D00017D0EF324D96E0001000E0CD028
:1005F000020134510F0B286E2850010D00017A0EB4
:10060000F324D96E0001000EF420DA6E0001DF92AF
:100610002EC0D9FF2FC0DAFF3B0EDF16000E216E71
:10062000050E206E2FC023F02EC022F0000E256E86
:10063000020E246E9BEC0CF006D02EC0D9FF2FC00A
:10064000DAFF3B0EDF16020134510F0B286E2850E3
:10065000010D530E296E0F0E2A6EF3502926F45009
:100660002A2229C02BF02AC02CF02BC0D9FF2CC085
:10067000DAFFFE0EDF161200A094000187518611EA
:10068000D8B413D086C0D9FF87C0DAFFDFAE04D05C
:100690000001EE6BEE2B02D00001EE6B0001EE517B
:1006A0000101406F0101416B06D0000E0101416F55
:1006B000000E0101406F010141514011D8B402D038
:1006C000A084120000018C51030AD8A403D0000EAC
:1006D00000018C6F00018C6702D0A0841200000121
:1006E0008C51020AD8A419D0010E0001E76F000E48
:1006F0000001E96F000E0001E86F000E0001EA6FD3
:10070000020E25EC09F00001E7C086F00001E8C008
:1007100087F0030E00018C6F71D000018C05D8A406
:100720006DD0400E00018D6504D0400E0101436F75
:1007300002D08DC043F101014351000800018D2515
:1007400000018D6F0201020E0001816F0201600E37
:100750000001806F43C142F100018A6729D012D0A5
:1007600083C0D9FF84C0DAFF80C0E1FF81C0E2FF0F
:10077000DFCFE7FF0001804B812B0001834B842BEF
:100780000101420701014267EBD715D083C0D9FFB1
:1007900084C0DAFF80C0E1FF81C0E2FFDFCFE7FF66
:1007A0000001804B812B0001834B842B0101420708
:1007B00001014267EBD700018D670AD00101435167
:1007C000400AD8A402D0020E01D0030E00018C6FA3
:1007D000010E0001E76F0201020E0001E96F020144
:1007E000600E0001E86F43C1EAF0020E25EC09F04B
:1007F0000001E7C086F00001E8C087F0A084120085
:10080000A094000E0F015F6F000E626E000E0F01CC
:10081000536F0F010F0E0001E86F0F01540E00011E
:10082000E76F000E0001EA6F000E0001E96F000E95
:100830000001EC6F020E0001EB6FBFEC0DF0160E25
:10084000616E9F0E0F015B6F7B0E606E000E0101EB
:10085000406F11D001014051040D0201000EF3243C
:10086000D96E0201020EF420DA6EDE6ADE6ADE6AFA
:10087000DD6A0101402B0B0E01014065EBD7648C52
:10088000000E0F015C6F6498649C0DD06296000EA0
:1008900000016B6F000E0001636F000E0001656FB9
:1008A000000E0001646F62B6F1D7010E446E010EB6
:1008B000456E000E406E000E416E000E3F6E000E43
:1008C0000101406F3AD001014051020D00016E0E4E
:1008D000F324D96E0001000EF420DA6E000EDE6EF5
:1008E000000EDD6E01014051020D0001740EF32473
:1008F000D96E0001000EF420DA6E000EDE6E000EDE
:10090000DD6E01014051010D00017A0EF324D96E14
:100910000001000EF420DA6E000EDF6E010140517E
:10092000010D00017D0EF324D96E0001000EF420AC
:10093000DA6E000EDF6E0101402B020E01014065F0
:10094000C2D70201020E00016F6F0201080E000102
:100950006E6F160E0F01536F020E0201036F300E01
:100960000201026F080E0201016F840E0201006F86
:10097000000E4D6E000E436E1200A094000E0F018B
:100980005F6F000E626E000E0F01536F0F010F0EAE
:10099000136E0F01540E126E000E156E000E146EC3
:1009A000000E176E020E166E57EC0EF0160E616EEC
:1009B0009F0E0F015B6F7B0E606E000E1A6E0FD0E4
:1009C0001A50040D0201000EF324D96E0201020E2A
:1009D000F420DA6EDE6ADE6ADE6ADD6A1A2A0B0E3F
:1009E0001A64EED7648C000E0F015C6F6498649CEF
:1009F0000DD06296000E00016B6F000E0001636F58
:100A0000000E0001656F000E0001646F62B6F1D741
:100A1000010E446E010E456E000E406E000E416EDA
:100A2000000E3F6E000E1A6E35D01A50020D0001F6
:100A30006E0EF324D96E0001000EF420DA6E000E63
:100A4000DE6E000EDD6E1A50020D0001740EF324EE
:100A5000D96E0001000EF420DA6E000EDE6E000E7C
:100A6000DD6E1A50010D00017A0EF324D96E0001DB
:100A7000000EF420DA6E000EDF6E1A50010D000138
:100A80007D0EF324D96E0001000EF420DA6E000E04
:100A9000DF6E1A2A020E1A64C8D70201020E000184
:100AA0006F6F0201080E00016E6F160E0F01536F7B
:100AB000020E0201036F300E0201026F080E0201E6
:100AC000016F840E0201006F000E4D6E000E436E2A
:100AD000120002013051800AD8A41200C00E000199
:100AE0006B6F8AD0030E0001696FB40E0001686F4E
:100AF000000E00016D6F120E00016C6F12000201FA
:100B00003251020D070EF324F66E030EF420F76E39
:100B100009000001F5CF68F00A000001F5CF69F087
:100B2000020E00016825126E000E00016921136E8D
:100B300012C0F6FF13C0F7FFF86A020EF76403D085
:100B40000800F55005D0F6CFE1FFF7CFE2FFE75000
:100B500000016C6F030E00016825126E000E00018B
:100B60006921136E12C0F6FF13C0F7FFF86A020E78
:100B7000F76403D00800F55005D0F6CFE1FFF7CFBA
:100B8000E2FFE75000016D6F1200030E0201325DBB
:100B9000D8B02AD002013251020D010EF324F66EB4
:100BA000030EF420F76E09000001F5CF68F00A008B
:100BB0000001F5CF69F0000168C0F6FF000169C0CF
:100BC000F7FFF86A020EF76403D00800F55005D06D
:100BD000F6CFE1FFF7CFE2FFE750126E12500001AF
:100BE0006C6F00016D6B1200000E00016B6F120044
:100BF000000E00016B6F120002013351010AD8B4DC
:100C000071D7030AD8B47BD7010AD8B4BED7F0D7BE
:100C10004304D8B464BA06D0000E626E6080608867
:100C2000020E436E62B460A402D040EC0EF064A2E7
:100C300002D0A194120062B060A006D0BDEC04F016
:100C4000A084040E436E629062B860A803D081EC69
:100C50000EF0629862AC18D060AC0ED0000E216E1F
:100C6000730E206E000E236E000E226E000E256E97
:100C7000000E246E9BEC0CF0629C4650D8A44606F5
:100C8000466602D0D3EC0AF062BA60AA02D0F6EC53
:100C90000DF062B260A210D07F0E216E2068000EAF
:100CA000236E000E226E000E256E000E246E9BEC4D
:100CB0000CF0000E0F015F6F040E435CD8B002D041
:100CC000A194120060A63ED0000E0001D86F36D06D
:100CD00062A638D063CF4EF04E30E832E8320F0BC8
:100CE000496E62964EB409D04950010D00017D0E47
:100CF000F324D96E0001000E08D04950010D000107
:100D00007A0EF324D96E0001000EF420DA6E000191
:100D1000DF70496603D09BEC09F00ED0000E216E07
:100D2000720E206E000E236E4E0E226E000E256E89
:100D3000000E246E9BEC0CF00001D82B030E00017A
:100D4000D865C6D7A194120020EE01F03750D926FD
:100D50003850DA22DF50156E15500001645D000E28
:100D600000016559D8A064C015F01550126E136AC1
:100D7000121E131E124A132A00016451122400018C
:100D8000646F0001655113200001656F000E146E41
:100D900014D01450010D0201380EF324D96E020153
:100DA000020EF420DA6E60C0E1FF61C0E2FFDFCF27
:100DB000E7FF0001604B612B142A1550145CD8A08A
:100DC000E8D7000165516411D8B426D020EE01F0B7
:100DD0003950D9263A50DA22080EDF6E20EE02F0A2
:100DE0003950D9263A50DA22380EDE6E020EDD6E08
:100DF00037C0D9FF38C0DAFFDFBC07D039C0D9FF10
:100E00003AC0DAFFC80EDF6E120039C0D9FF3AC00F
:100E1000DAFF880EDF6E120020EE01F03950D9267D
:100E20003A50DA22080EDF6E20EE02F03950D92651
:100E30003A50DA22300EDE6E020EDD6E39C0D9FF76
:100E40003AC0DAFF840EDF6E0001639F4266120033
:100E5000D3EC0AF0120082A075EC0DF01F0E436473
:100E6000120064B2120000018C6774D00001000E01
:100E70000101416F00018E0E0101406F400E010122
:100E8000426FADEC07F00101466F01014651D8B445
:100E900061D0000E0101476F4BD001014751010D98
:100EA00000018E0EF324D96E0001000EF420DA6EDC
:100EB00001014751010D0101000EF324E16E010112
:100EC000010EF420E26EDFCFE7FF30D00101475181
:100ED000010D0101000EF324D96E0101010EF42071
:100EE000DA6E01014751010D00018E0EF324E16E0F
:100EF0000001000EF420E26EE7500101456F010190
:100F00004529DF6E13D001014751010D00018E0EFE
:100F1000F324D96E0001000EF420DA6EDF500A0AC5
:100F2000D8B4BBD7070AD8B4B8D7D0D70101472B5C
:100F3000010146510101475DD8A0E5D70101010E2D
:100F40000001E86F0101000E0001E76F46C1E9F002
:100F50006DEC0EF03CEC03F01200000E00018B6F04
:100F6000000189518811D8B413D088C0D9FF89C035
:100F7000DAFFDFAE04D00001EE6BEE2B02D00001F1
:100F8000EE6B0001EE510101436F0101446B06D08D
:100F9000000E0101446F000E0101436F0101445135
:100FA0004311D8A459D0000120EE01F0000188516E
:100FB000D92600018951DA22DF500001EE6F0101CC
:100FC00042510001EE5DD8B00CD0000120EE01F0DE
:100FD00000018851D92600018951DA22DF50010130
:100FE000426F000E00018B6F1AD000018B51010D72
:100FF0000201A00EF324D96E0201020EF420DA6E73
:1010000000018B51010DF35001014025E16EF450B8
:1010100001014121E26EDFCFE7FF00018B2B0101CF
:10102000425100018B5DD8A0E0D7000E0001E76FB0
:101030000201020E0001E96F0201A00E0001E86F3B
:10104000400E0001EA6F020E25EC09F00001E7C036
:1010500088F00001E8C089F000018B511200000106
:101060006B8F0F010F0E136E0F01540E126E000ED8
:10107000156E000E146E000E176E020E166E57ECF3
:101080000EF00201020E136E0201000E126E000E2F
:10109000156E000E146E000E176E300E166E57ECA5
:1010A0000EF0648C000E286E19D02850010D00013E
:1010B0007A0EF324D96E0001000EF420DA6E000ED1
:1010C000DF6E2850010D00017D0EF324D96E000162
:1010D000000EF420DA6E000EDF6E282A020E28645D
:1010E000E4D7000E136E4B0E126E000E156E000E3E
:1010F000146E000E176E020E166E57EC0EF0649C06
:101100000201020E00016F6F0201080E00016E6FF6
:101110000201020E386E0201000E376E38C03AF03E
:1011200037C039F032C24DF04D6603D0100E436E19
:101130001200000E216E010E206E000E236E4D0E69
:10114000226E000E256E010E246E9BEC0CF0200E1C
:10115000436E1200080E146E080E00016C5D000E46
:1011600000016D59D8B00BD06CC014F04A6602D0A3
:10117000010E04D04A04D8A402D0020E4A6E1450C4
:10118000126E136A121E131E124A132A00016C51AA
:10119000122400016C6F00016D51132000016D6F6E
:1011A000000120EE01F000016E51D92600016F51BF
:1011B000DA2214C0DFFF0201020E3C6E0201380E7B
:1011C0003B6E00016BA11ED03DD0000168C0F6FF50
:1011D000000169C0F7FFF86A3BC0D9FF3CC0DAFFE5
:1011E000020EF76403D00800F55005D0F6CFE1FFFA
:1011F000F7CFE2FFE750DF6E0001684B692B3B4AF7
:101200003C2A14061466E1D71200000168C0F6FFFC
:10121000000169C0F7FFF86A3BC0D9FF3CC0DAFFA4
:10122000020EF76403D00800F55005D0F6CFE1FFB9
:10123000F7CFE2FFE750DF6E0001684B692B3B4AB6
:101240003C2A14061466E1D712000001EB6F00017E
:10125000E751D8B40AD00001EB51020D00016E0E27
:10126000F324D96E0001000E09D00001EB51020DEC
:101270000001740EF324D96E0001000EF420DA6E22
:101280000001DECFECF00001DDCFEDF00001ED510B
:10129000EC11D8A407D0000E0001E86F000E000189
:1012A000E76F1200000120EE02F00001EC51D92698
:1012B0000001ED51DA220001E8C0DEFF0001E9C0C3
:1012C000DDFF000120EE01F00001EC51D926000104
:1012D000ED51DA220001EAC0DFFFECC0D9FFEDC01A
:1012E000DAFF400EDF16ECC0D9FFEDC0DAFF880E42
:1012F000DF120001E751D8B40AD00001EB51020D12
:1013000000016E0EF324D96E0001000E09D0000119
:10131000EB51020D0001740EF324D96E0001000E92
:10132000F420DA6E040EDF1A0001EDC0E8F00001CF
:10133000ECC0E7F012002D0E466E4EC0D6F0FD0E4A
:101340000001D617D8A45DD04EC0D6F00001D890C9
:10135000D6333F0E0001D6170001D651040D02010D
:10136000000EF324376E0201020EF420386E38C0EE
:101370003AF037C039F0040E391A37C0D9FF38C0F7
:10138000DAFFDF30E8320F0B0D0AD8A437D0000E99
:10139000306E24D020EE02F03750D9263850DA22B1
:1013A000DECFD6F0DDCFD7F0D6C0D9FFD7C0DAFF79
:1013B0003050010D0201300EF324E16E0201020EE5
:1013C000F420E26EDFCFE7FF20EE02F03750D9269F
:1013D0003850DA22DE2A000EDD22302A070E306471
:1013E000D9D720EE02F03750D9263850DA22300E05
:1013F000DE6E020EDD6EC6EC0BF012004EEC0DF050
:1014000012004EC0D6F0FD0E0001D6170001D651D5
:10141000040AD8A4120078EC0BF0120064980001C2
:101420006BBF2DD0000163AF0BD0020E476E41663B
:1014300002D056EC0CF0000E456E000E446E120009
:1014400020EE01F03950D9263A50DA22080EDF6E2C
:1014500020EE02F03950D9263A50DA22300EDE6EF4
:10146000020EDD6E39C0D9FF3AC0DAFF8C0EDF6E96
:101470006EC0D9FF6FC0DAFF840EDF6E120002016A
:1014800030AF0FD0010E476E406602D056EC0CF024
:10149000000E456E000E446E42661200D3EC0AF058
:1014A0001200020E476E20EE01F03950D9263A5054
:1014B000DA22080EDF6E20EE02F03950D9263A50BB
:1014C000DA22300EDE6E020EDD6E39C0D9FF3AC070
:1014D000DAFF840EDF6E000E456E000E446E42662B
:1014E0001200D3EC0AF01200166E1250D8B409D0D4
:1014F0001650020D00016E0EF324D96E0001000E8D
:1015000008D01650020D0001740EF324D96E0001AC
:10151000000EF420DA6EDECF17F0DDCF18F0185091
:101520001710D8A405D0000E136E000E126E120014
:1015300020EE02F01750D9261850DA2213C0DEFF31
:1015400014C0DDFF20EE01F01750D9261850DA2222
:1015500015C0DFFF17C0D9FF18C0DAFF400EDF1635
:1015600017C0D9FF18C0DAFF880EDF121250D8B4A6
:1015700009D01650020D00016E0EF324D96E000141
:10158000000E08D01650020D0001740EF324D96E1F
:101590000001000EF420DA6E040EDF1A18C013F0FA
:1015A00017C012F0120044661200010E446E456628
:1015B0001200010E456E4750020AD8A412D0000155
:1015C00020EE01F000016E51D92600016F51DA22A0
:1015D000000EDF6E6EC0D9FF6FC0DAFFC80EDF6E7F
:1015E00012004704D8A41200000E3D6E20EE01F058
:1015F0003750D9263850DA22080EDF6E20EE02F07E
:101600003750D9263850DA22300EDE6E020EDD6EEB
:1016100037C0D9FF38C0DAFF840EDF6E010E3D6E91
:1016200020EE01F03950D9263A50DA22080EDF6E4A
:1016300020EE02F03950D9263A50DA22300EDE6E12
:10164000020EDD6E39C0D9FF3AC0DAFF800EDF6EC0
:101650001200176E0201020E196E0201000E186EC2
:101660001250136E146AD890133614361750156E34
:10167000166AD89015361636D89015361636135089
:10168000152614501622D89015361636D8901536D1
:101690001636155018261650192218C0D9FF19C031
:1016A000DAFFDF9E126609D01750020D0001740E9A
:1016B000F324D96E0001000E08D01750020D00016E
:1016C0006E0EF324D96E0001000EF420DA6E18C0FD
:1016D000DEFF19C0DDFF18C0D9FF19C0DAFFDF9C9B
:1016E00020EE04F01850D9261950DA22DF8C1200AF
:1016F0006EC0D9FF6FC0DAFF000EDFBC010E156EA1
:10170000040E00016E1B4350080AD8A40AD032C24E
:101710005CFF0F015C51D8B402D0100E01D0040E52
:10172000436E4704D8A42AD0000120EE02F0000145
:101730006E51D92600016F51DA22380EDE6E020E8C
:10174000DD6EAAEC08F04A50020AD8A407D06EC099
:10175000D9FF6FC0DAFF840EDF6E1200156607D066
:101760006EC0D9FF6FC0DAFFC80EDF6E12006EC008
:10177000D9FF6FC0DAFF880EDF6E1200000163AF81
:1017800002D00001639F000E476E1200000E4A6EE9
:10179000000E426E000E406E000E416E000E3D6E59
:1017A000000E476E6EC0D9FF6FC0DAFF7F0EDF16E6
:1017B000040E00016E1B6EC0D9FF6FC0DAFF7F0EF2
:1017C000DF16040E00016E1B39C0D9FF3AC0DAFFE4
:1017D0007F0EDF16000E00016B6F000E00016D6FB3
:1017E000000E00016C6F000E0001636F000E00011F
:1017F000656F000E0001646F0FEC0CF0000E216E9F
:10180000030E206E000E236E000E226E000E256E5B
:10181000000E246E9BEC0CF00EEC0AF0120002019C
:101820003039E832030B0009D8A412001DD00001A2
:101830006B8F080E436E120069EC05F012002FEC5E
:1018400008F01200E6EC01F01200000E216E020E0C
:10185000206E000E236E000E226E000E256E000E0E
:10186000246E9BEC0CF0120002013151000AD8B436
:101870001200010AD8B4E6D7020AD8B4E3D7060AA0
:10188000D8B4D5D7030AD8B4D7D7010AD8B4DDD78E
:101890000F0AD8B41200010AD8B4D1D7030AD8B4B9
:1018A0001200010AD8B41200070A1200000E406E9E
:1018B000000E416E4750020AD8A419D020EE01F064
:1018C0003950D9263A50DA22080EDF6E20EE02F0A7
:1018D0003950D9263A50DA22380EDE6E020EDD6E0D
:1018E00039C0D9FF3AC0DAFFC80EDF6E120000011E
:1018F0006C510201365D00016D5102013759D8B0BB
:1019000004D036C26CF037C26DF0AAEC08F00001CA
:1019100020EE02F000016E51D92600016F51DA224B
:10192000380EDE6E020EDD6E6EC0D9FF6FC0DAFFBC
:10193000C80EDF6E120015D09AEC0EF012009BEC70
:101940000EF0120099EC0EF0120095EC0EF0120061
:101950009CEC0EF012009EEC0EF012009DEC0EF0CE
:10196000120020C026F021C027F02750000AD8B46A
:1019700004D07F0AD8A412001AD02650010AD8B485
:10198000E4D7030AD8B4E4D7010AD8B4E4D7060AE6
:10199000D8B41200770AD8B41200010AD8B4CCD750
:1019A000070AD8B4CFD7010AD8A41200C8D7265046
:1019B000FF0AD8A41200D2D7000E0201E06F4B0E2E
:1019C0000201E16F000E0201E26F000E0201E36FFF
:1019D000000E0201E46F000E0201E56F080E020125
:1019E000E66F000E00018B6F1A0E1A6E010E9BEC53
:1019F0000DF01E0E1A6E020E9BEC0DF0000E126E14
:101A00000201020E146E0201A00E136E400E156E3E
:101A1000020E74EC0AF012C088F013C089F0000EB8
:101A20000001876F000E0001866F000E00018C6FB1
:101A30001200EACFDCF0E1CFDDF0E2CFDEF0D9CF6B
:101A4000DFF0DACFE0F0F3CFE1F0F4CFE2F0F6CF61
:101A5000E3F0F7CFE4F0F8CFE5F0F5CFE6F008ECEF
:101A600006F0E6C0F5FFE5C0F8FFE4C0F7FFE3C00D
:101A7000F6FFE2C0F4FFE1C0F3FFE0C0DAFFDFC031
:101A8000D9FFDEC0E2FFDDC0E1FFDCC0EAFFDBC062
:101A9000E9FFDAC0FBFFD9C0FAFF11004750020A84
:101AA000D8A403D0A4EC06F01200000E476E3D66E9
:101AB00019D020EE01F03950D9263A50DA22080E1A
:101AC000DF6E20EE02F03950D9263A50DA22300E7D
:101AD000DE6E020EDD6E39C0D9FF3AC0DAFF8C0E21
:101AE000DF6E1200000E3D6E12003E04D8A41200FC
:101AF0003F04D8A41200A09498EC0EF06492000E5B
:101B00003F6E0E0E366E100E356E3506D8A03606B8
:101B100036503510D8A4F9D76484070E366E080EF7
:101B2000356E3506D8A0360636503510D8A4F9D70C
:101B30006494A08412001F6E1AA405D0000E126EC9
:101B40001F5029EC0BF01AA205D0010E126E1F5087
:101B500029EC0BF01F50010D530E1B6E0F0E1C6E67
:101B6000F3501B26F4501C221BC01DF01CC01EF09D
:101B70001DC0D9FF1EC0DAFF1AC0DFFF120000012E
:101B8000E8C0EEF00001E7C0EDF00AD0EDC0D9FFEB
:101B9000EEC0DAFF0001E9C0DFFF0001ED4BEE2BE4
:101BA0000001EB07D8A0EC070001EB29D8B4EC2921
:101BB000D8B41200EBD7000ED36E000E7E6E000E6E
:101BC0007F6E000E926E000E936E030E946E000EEA
:101BD000806E000E816E000E826E00EC04F0436693
:101BE00002D011EC0EF02BEC07F0F9D70F0153A146
:101BF00016D0800E37C0D9FF38C0DAFFDF620DD0B3
:101C0000840E6EC0D9FF6FC0DAFFDF6206D037C026
:101C1000D9FF38C0DAFF8C0EDF6E0F015391629A44
:101C2000120043661200000E646E000E606E160E07
:101C3000616E9F0E0F015B6F7B0E606ED08EA28473
:101C4000A084F28E01D0648664A6FDD7010E436E97
:101C5000120001EE00F0400EEE6AE806FDE100EE33
:101C600060F0760EEE6AE806FDE100EE31F01E0E41
:101C7000EE6AE806FDE1000EF86E0001DBEF0DF004
:101C8000000E3F6E000E216E740E206E000E236E4D
:101C9000000E226E000E256E000E246E9BEC0CF0E2
:101CA0006492609401D0629462A41200FCD713C0C5
:101CB00019F012C018F008D018C0D9FF19C0DAFF07
:101CC00014C0DFFF184A192A1606D8A017061628CE
:101CD000D8B41728D8B41200EFD7A09400018C67AD
:101CE0000ED00001E8C084F00001E7C083F0E9C035
:101CF0008DF0010E00018A6F010E00018C6FA0842F
:101D00001200608462986482010E3F6E000E216EA4
:101D1000750E206E000E236E000E226E000E256ED4
:101D2000000E246E9BEC0CF01200DCEC0CF01200A8
:0E1D3000120012001200120012001200120027
:020000040020DA
:08000000FFFFFFFFFFFFFFFF00
:020000040030CA
:0E0000000032011EFF0081FF03C003E0034039
:00000001FF
