:040000007CEF00F0A1
:0600080049825BEF0BF0E2
:100018004980D8CFC0F0E8CFC1F0E0CFC2F0FACF26
:10002800C3F0FBCFC4F0E9CFC5F0EACFC6F0E1CF0B
:10003800C7F0E2CFC8F0D9CFC9F0DACFCAF0F3CF12
:10004800CBF0F4CFCCF0F6CFCDF0F7CFCEF0F8CFA1
:10005800CFF0F5CFD0F049C0D1F04AC0D2F04BC0B4
:10006800D3F04CC0D4F09EA006D0FE0ECF6E180E72
:10007800CE6E9E90252A9EA402D08B9A9E94A1A211
:100088000BD00001EA51BF6EE9C0BEFF8A0EB36E05
:10009800D00EB26E8B8AA192D4C04CF0D3C04BF074
:1000A800D2C04AF0D1C049F0D0C0F5FFCFC0F8FFA8
:1000B800CEC0F7FFCDC0F6FFCCC0F4FFCBC0F3FF36
:1000C800CAC0DAFFC9C0D9FFC8C0E2FFC7C0E1FF94
:1000D800C6C0EAFFC5C0E9FFC4C0FBFFC3C0FAFF42
:1000E800C2C0E0FFC1C0E8FFC0C0D8FF49901000FF
:0400F800E1EF0DF037
:1003000000C60380034C03090309024300020100F5
:10031000C03209040000010202010005240010019E
:10032000042402020524060001052401000107053A
:10033000810308000209040100020A000000070509
:10034000020240000007058202400000340343001F
:10035000440043002000520053002D0032003300BF
:100360003200200045006D0075006C0061007400D3
:1003700069006F006E002000440065006D006F0092
:1003800034034D006900630072006F006300680071
:1003900069007000200054006500630068006E0072
:1003A0006F006C006F0067007900200049006E004C
:1003B00063002E00120100020200000877070A0005
:1003C0000001010200010403090431442000324409
:1003D000200031572000325720004F0050005100BC
:0103E000001C
:1003E200000ED36E000E7E6E000E7F6E200E926E99
:1003F200000E936E000E806E000E816E000E826EF5
:10040200000E0101B46F000EB36F000EB06F000E4C
:10041200AF6F030E0001E86F700ED36E000E8B6E8D
:10042200800E946E840ED56EF184F294F28AB10E2F
:10043200CD6E9F909E90B90EB16E0A0EBD6E9F94C6
:100442009E949D848D0EBF6EBE0EBE6EA292A19230
:10045200A082D08EF28EF28CBBEC0FF0BEEC0AF0D2
:10046200010E68EC0FF0020E0101AE6F380EAD6F97
:10047200AD0EE82EFED7AD2FFCD7AE2FFAD7020E67
:1004820068EC0FF0200E0101AD6F290EE82EFED7A9
:10049200AD2FFCD700D0C2EC0FF0020E68EC0FF0CB
:1004A2007F0E476E010E486EDEEC0EF0020E00016A
:1004B200E86F000E0101BB6F000EBA6F000EB56F40
:1004C2000001945105E10A0E935DD8A0DBEF06F01E
:1004D200000E946F000E936F0101BA4BBB2BB55106
:1004E200D8A40DD08286BB5104E1060EBA5DD8A015
:1004F20013D0000EBB6F000EBA6F010E0CD08296A5
:10050200BB5104E1040EBA5DD8A006D0000EBB6F49
:10051200000EBA6F000EB56F0001914B922B8B4B00
:100522008C2B060E8B198C11D8A406D0000E8C6F62
:10053200000E8B6F000E9D6F894B8A2B0A0E891954
:100542008A11D8A404D0000E8A6F000E896F3C0E67
:1005520091199211D8A406D0000E926F000E916FDD
:100562008F4B902B3C0E8F199011D8A406D0000E01
:10057200906F000E8F6F8D4B8E2B860E68EC0FF0F6
:100582008DC0DAF08EC0DBF08FC0DCF090C0DDF001
:1005920091C0DEF092C0DFF021EC0AF0C30E68ECED
:1005A2000FF059EC0CF0C00E68EC0FF097C042F05F
:1005B20098C043F0446A456A000E77EC09F042C0E5
:1005C20091F143C092F144C093F145C094F1000E01
:1005D2000101956F000E966FA00E976F430E986FF4
:1005E200C4EC08F00101D8B007D0CA0E476E030E62
:1005F200486EDEEC0EF006D0D20E476E030E486E49
:10060200DEEC0EF0CB0E68EC0FF0DCEC0BF0C80E5B
:1006120068EC0FF00001855187250101AD6F0001E3
:10062200865188210101AE6FAD510001895D010142
:10063200AE5100018A59D8B008D0CE0E476E030ED3
:10064200486EDEEC0EF08B8807D0D60E476E030E96
:10065200486EDEEC0EF08B98CF0E68EC0FF082AE97
:1006620027D0000E0001E76F85518611D8A407D06C
:10067200DA0E476E030E486EDEEC0EF03FD000013C
:1006820085058611D8A407D0DC0E476E030E486E8E
:10069200DEEC0EF033D0020E000185198611D8A4CB
:1006A2002DD0DE0E476E030E486EDEEC0EF026D025
:1006B200010E0001E76F85518611D8A407D0DA0E2A
:1006C200476E030E486EDEEC0EF018D00001850571
:1006D2008611D8A407D0DC0E476E030E486EDEECFE
:1006E2000EF00CD0020E000185198611D8A406D096
:1006F200DE0E476E030E486EDEEC0EF00001E705DB
:10070200D8A4ABD1000E0101956F000E966F140EA6
:10071200976F440E986F99C042F09AC043F0000E52
:1007220043BEFF0E446E456E010E77EC09F042C0E7
:10073200DFF043C0E0F044C0E1F045C0E2F087ECF6
:100742000FF0DFC091F1E0C092F1E1C093F1E2C09D
:1007520094F125EC07F091C1B6F192C1B7F193C1C2
:10076200B8F194C1B9F1B6C195F1B7C196F1B8C16A
:1007720097F1B9C198F183C042F084C043F0000EF2
:1007820043BEFF0E446E456E010E77EC09F042C087
:1007920091F143C092F144C093F145C094F125EC2C
:1007A20007F091C1A5F192C1A6F193C1A7F194C13D
:1007B200A8F1D6EC0CF0A5C183F0A6C184F000012B
:1007C20084BF0AD0110E835D270E8459D8A004D0AD
:1007D200270E846F100E0BD084BF06D0B80E835D37
:1007E2000B0E8459D8B004D00B0E846FB80E836FF1
:1007F20084BF0AD0810E835D250E8459D8A004D00F
:10080200000E866F020E0FD084BF0AD0C10E835D28
:10081200120E8459D8A004D0000E866F010E03D0A8
:10082200000E866F000E856F99C042F09AC043F0A9
:10083200446A456A000E77EC09F042C091F143C068
:1008420092F144C093F145C094F1000E0101956FFD
:10085200000E966F140E976F440E986FC4EC08F05A
:100862000101D8B003D0010E000106D0000E000134
:10087200886F000E876F020EE86F99C042F09AC02F
:1008820043F0446A456A000E77EC09F042C091F1E8
:1008920043C092F144C093F145C094F1000E0101AE
:1008A200956F000E966F0A0E976F440E986FC4EC08
:1008B20008F00101D8B005D0000E0001886F0A0EC1
:1008C2006BD099C042F09AC043F0446A456A000E68
:1008D20077EC09F042C091F143C092F144C093F128
:1008E20045C094F1000E0101956F000E966F0C0E3B
:1008F200976F440E986FC4EC08F00101D8B005D090
:10090200000E0001886F080E47D099C042F09AC0CD
:1009120043F0446A456A000E77EC09F042C091F157
:1009220043C092F144C093F145C094F1000E01011D
:10093200956F000E966F0E0E976F440E986FC4EC73
:1009420008F00101D8B005D0000E0001886F060E34
:1009520023D099C042F09AC043F0446A456A000E1F
:1009620077EC09F042C091F143C092F144C093F197
:1009720045C094F1000E0101956F000E966F100EA6
:10098200976F440E986FC4EC08F00101D8B005D0FF
:10099200000E0001886F040E876F99C042F09AC062
:1009A20043F0446A456A000E77EC09F042C091F1C7
:1009B20043C092F144C093F145C094F1000E01018D
:1009C200956F000E966F100E976F440E986FC4ECE1
:1009D20008F00101D8A0EED199C042F09AC043F0CC
:1009E200446A456A000E77EC09F042C091F143C0B7
:1009F20092F144C093F145C094F1000E0101956F4C
:100A0200000E966F120E976F440E986FC4EC08F0AA
:100A12000101D8B005D0000E0001886F040EC9D1C3
:100A220099C042F09AC043F0446A456A000E77ECDE
:100A320009F042C091F143C092F144C093F145C024
:100A420094F1000E0101956F000E966F140E976FD0
:100A5200440E986FC4EC08F0A5D1000E0101956F09
:100A6200000E966F160E976F440E986F99C042F063
:100A72009AC043F0000E43BEFF0E446E456E010E57
:100A820077EC09F042C0DFF043C0E0F044C0E1F08F
:100A920045C0E2F087EC0FF0DFC091F1E0C092F1C7
:100AA200E1C093F1E2C094F125EC07F091C1B6F1F7
:100AB20092C1B7F193C1B8F194C1B9F1B6C195F140
:100AC200B7C196F1B8C197F1B9C198F183C042F0AC
:100AD20084C043F0000E43BEFF0E446E456E010E0D
:100AE20077EC09F042C091F143C092F144C093F116
:100AF20045C094F125EC07F091C1A5F192C1A6F190
:100B020093C1A7F194C1A8F1D6EC0CF0A5C183F072
:100B1200A6C184F0000184BF0AD0110E835D270EA6
:100B22008459D8A004D0270E846F100E0BD084BF36
:100B320006D0B80E835D0B0E8459D8B004D00B0ECC
:100B4200846FB80E836F84BF0AD0810E835D250E39
:100B52008459D8A004D0000E866F020E0FD084BF35
:100B62000AD0C10E835D120E8459D8A004D0000EA3
:100B7200866F010E03D0000E866F000E856F99C03E
:100B820042F09AC043F0446A456A000E77EC09F0DD
:100B920042C091F143C092F144C093F145C094F137
:100BA200000E0101956F000E966F160E976F440EA0
:100BB200986FC4EC08F00101D8B003D0010E000117
:100BC20006D0000E0001886F000E876F020EE86FDC
:100BD20099C042F09AC043F0446A456A000E77EC2D
:100BE20009F042C091F143C092F144C093F145C073
:100BF20094F1000E0101956F000E966F0C0E976F27
:100C0200440E986FC4EC08F00101D8B005D0000E74
:100C12000001886F0A0E6BD099C042F09AC043F06F
:100C2200446A456A000E77EC09F042C091F143C074
:100C320092F144C093F145C094F1000E0101956F09
:100C4200000E966F0E0E976F440E986FC4EC08F06C
:100C52000101D8B005D0000E0001886F080E47D000
:100C620099C042F09AC043F0446A456A000E77EC9C
:100C720009F042C091F143C092F144C093F145C0E2
:100C820094F1000E0101956F000E966F100E976F92
:100C9200440E986FC4EC08F00101D8B005D0000EE4
:100CA2000001886F060E23D099C042F09AC043F02B
:100CB200446A456A000E77EC09F042C091F143C0E4
:100CC20092F144C093F145C094F1000E0101956F79
:100CD200000E966F120E976F440E986FC4EC08F0D8
:100CE2000101D8B005D0000E0001886F040E876F95
:100CF20099C042F09AC043F0446A456A000E77EC0C
:100D020009F042C091F143C092F144C093F145C051
:100D120094F1000E0101956F000E966F120E976FFF
:100D2200440E986FC4EC08F00101D8A043D099C0DA
:100D320042F09AC043F0446A456A000E77EC09F02B
:100D420042C091F143C092F144C093F145C094F185
:100D5200000E0101956F000E966F140E976F440EF0
:100D6200986FC4EC08F00101D8A055D699C042F0A2
:100D72009AC043F0446A456A000E77EC09F042C01B
:100D820091F143C092F144C093F145C094F1000E39
:100D92000101956F000E966F160E976F440E986FB5
:100DA200C4EC08F00101D8B005D0000E0001886F34
:100DB200020E876F0001E805D8A43ED09D51D8A449
:100DC2003BD0000EE86F000E826F000E816F08D0DC
:100DD200D6CFB1F1D7CFB2F1D6CFB1F1D7CFB2F1F1
:100DE200D00E0101B15D8A0EB259D8B0F1D7000E12
:100DF200436E010E426E53EC0EF00101B4BF13D0EC
:100E0200B45104E11B0EB35DD8A00DD0000EB46F37
:100E1200000EB36FAF1DAD6FB01DAE6F010EAD15FD
:100E2200AF6FB06B04D0030EB327000EB423010ED4
:100E320000019D6F010EE86F000E436E010E426EBF
:100E420053EC0EF061EF02F001019451800BA16F9F
:100E520094519425A36F93BFA381A351D8B40DD00D
:100E6200A329D8A408D0000E916F000E926F000E35
:100E7200936F000E946F938F06D0000E916F000E49
:100E8200926F000E936F000E946F9851800BA26FB9
:100E9200A151A219D8A4A18D98519825A26F97BFEC
:100EA200A281A251D8B40DD0A229D8A408D0000E94
:100EB200956F000E966F000E976F000E986F978FCA
:100EC20006D0000E956F000E966F000E976F000E03
:100ED200986FA351A25DD8B022D0A1AD02D0800EEE
:100EE200A11BA3C1A4F1A2C1A3F1A4C1A2F191C10A
:100EF200A4F195C191F1A4C195F192C1A4F196C159
:100F020092F1A4C196F193C1A4F197C193F1A4C146
:100F120097F194C1A4F198C194F1A4C198F1000E83
:100F2200A46FA351996F9A6B991F9A1F994B9A2B91
:100F3200A2519B6F9C6B99519B279A519C239CBFFA
:100F42002CD09C5104E11A0E9B5DD8A026D0915161
:100F5200921193119411D8B402D0010E01D0000E57
:100F6200A46F000E916F000E926F000E936F000E31
:100F7200946FA2C1A3F115D0A4A105D0D890A43139
:100F82000109A46F02D0D890A43391B1A48F9435F3
:100F92009433933392339133A32BA251A35DD8A000
:100FA200EBD7A1BD29D0A351D8A409D0000E916FCF
:100FB200000E926F000E936F000E946F1200955107
:100FC200912796519223975193239851942394A158
:100FD20083D0A4A106D0D890A433A4510109A46F50
:100FE20002D0D890A43391B1A48F94359433933323
:100FF20092339133A32B70D09551915D96519259B2
:10100200975193599451800A996F9851800A99592E
:10101200D8B036D091C199F192C19AF193C19BF1A6
:1010220094C19CF1991F9A1F9B1F9C1F992B000E24
:101032009A239B239C23955199259D6F96519A2122
:101042009E6F97519B219F6F98519C21A06FFF0E1D
:101052009D25916FFF0E9E21926FFF0E9F21936F30
:10106200FF0EA021946F800EA11BA46DA451D8A4E1
:101072000FD0010E9127000E92239323942308D0C0
:101082009551915F9651925B9751935B9851945B06
:101092009151921193119411D8A41CD0A451D8A4A7
:1010A20019D0000E916F000E926F000E936F000E1A
:1010B200946F1200D8909137923793379437A4BF28
:1010C2009181A4A102D0D88001D0D890A437A35195
:1010D200D8A4A30793AFEED7000EA26FA4AF0AD095
:1010E200A4C199F17F0E9917D8A402D091A102D080
:1010F200010EA26FA251D8B420D0010E9127000E8A
:1011020092239323942394A118D091C199F192C16F
:101112009AF193C19BF194C19CF19C359C339B3312
:101122009A33993399C191F19AC192F19BC193F18A
:101132009CC194F1A329D8A4A32BA329D8B403D08A
:10114200A351D8A40DD0000E916F000E926F000E25
:10115200936F000E946FA351D8A402D0000EA16F1A
:10116200A3A102D0938F01D0939FD890A331946F03
:10117200A1BF948F91C191F192C192F193C193F168
:1011820094C194F11200000E010191150001DF6F6C
:10119200000E010192150001E06F800E010193150E
:1011A2000001E16F7F0E010194150001E26FDF5132
:1011B200E011E111E211D8A409D0000E0101916FF2
:1011C200000E926F000E936F000E946F000E0101DD
:1011D20095150001DF6F000E010196150001E06F09
:1011E200800E010197150001E16F7F0E0101981534
:1011F2000001E26FDF51E011E111E211D8A409D040
:10120200000E0101956F000E966F000E976F000E93
:10121200986F010194AF25D091C1DFF092C1E0F047
:1012220093C1E1F094C1E2F00001DF1FE01FE11F72
:10123200E21FDF2B000EE023E123E223000EDF2575
:101242000101916F000E0001E0210101926F000E79
:101252000001E1210101936F800E0001E2210101F1
:10126200946F98AF25D095C1DFF096C1E0F097C199
:10127200E1F098C1E2F00001DF1FE01FE11FE21F71
:10128200DF2B000EE023E123E223000EDF25010124
:10129200956F000E0001E0210101966F000E000122
:1012A200E1210101976F800E0001E2210101986F97
:1012B200000E911B000E921B000E931B800E941BBE
:1012C200000E951B000E961B000E971B800E981B9E
:1012D2009551915D965192599751935998519459BC
:1012E200D8B002D0D8901200D88012000001D96F75
:1012F2000001D951D8A445AE1AD042C0D5F043C09E
:10130200D6F044C0D7F045C0D8F0D51FD61FD71F9E
:10131200D81FD52B000ED623D723D823D5C0DBF078
:10132200D6C0DCF0D7C0DDF0D8C0DEF008D042C0B5
:10133200DBF043C0DCF044C0DDF045C0DEF04250DB
:10134200431044104510D8A409D0000E426E000E7E
:10135200436E000E446E000E456E1200960EDA6F5A
:1013620006D0DA2BD890DE33DD33DC33DB33000EEC
:10137200DB15D56F000EDC15D66F000EDD15D76FAD
:10138200FE0EDE15D86FD551D611D711D811D8B4AB
:101392000DD0E7D7DA2B010EDB27000EDC23DD238D
:1013A200DE23D890DE33DD33DC33DB33000EDB1596
:1013B200D56F000EDC15D66F000EDD15D76FFF0E50
:1013C200DE15D86FD551D611D711D811D8B407D0A0
:1013D200E1D7DA07D890DB37DC37DD37DE37DDBF20
:1013E20003D0020EDA61F5D7DAB108D0FF0EDB17AF
:1013F200FF0EDC177F0EDD17FF0EDE17D890DA33F3
:10140200DAC0D5F0D66BD76BD86BD5C0D8F0D76B16
:10141200D66BD56BD551DB13D651DC13D751DD1307
:10142200D851DE13D951D8A445AE01D0DE8FDBC02E
:1014320042F0DCC043F0DDC044F0DEC045F01200F3
:10144200740E49EC0FF06D0E49EC0FF0000E456E74
:101452000A0E446EDAC042F0DBC043F0B5EC0EF087
:1014620042C0D5F043C0D6F0000E0001D86F0A0E7C
:10147200D76F06EC0FF00001D551300F666F665141
:1014820049EC0FF0DAC0D5F0DBC0D6F0000E000157
:10149200D86F0A0ED76F06EC0FF00001D551300F4E
:1014A200676F675149EC0FF03A0E0001E06FE051AF
:1014B20049EC0FF0000E456E0A0E446EDCC042F09D
:1014C200DDC043F0B5EC0EF042C0D5F043C0D6F01B
:1014D200000E0001D86F0A0ED76F06EC0FF0000164
:1014E200D551300F686F685149EC0FF0DCC0D5F070
:1014F200DDC0D6F0000E0001D86F0A0ED76F06ECE1
:101502000FF00001D551300F696F695149EC0FF0AE
:101512003A0E0001E06FE05149EC0FF0000E456E0B
:101522000A0E446EDEC042F0DFC043F0B5EC0EF0AE
:1015320042C0D5F043C0D6F0000E0001D86F0A0EAB
:10154200D76F06EC0FF00001D551300F6A6F6A5168
:1015520049EC0FF0DEC0D5F0DFC0D6F0000E00017E
:10156200D86F0A0ED76F06EC0FF00001D551300F7D
:101572006B6F6B5149EC0FF01200A00E0001DD6F92
:10158200860EDE6F010EDF6F000EE06F88EC0EF04C
:10159200190E486E5A0E476EB20EE82EFED7472E2F
:1015A200FCD7482EFAD7380E68EC0FF0020E486EC0
:1015B200380E476EAD0EE82EFED7472EFCD7482ECA
:1015C200FAD700F0390E68EC0FF0020E486E380EB2
:1015D200476EAD0EE82EFED7472EFCD7482EFAD71F
:1015E20000F0140E68EC0FF0020E486E380E476ED3
:1015F200AD0EE82EFED7472EFCD7482EFAD700F0C4
:10160200730E68EC0FF0020E486E380E476EAD0E88
:10161200E82EFED7472EFCD7482EFAD700F0520EFE
:1016220068EC0FF0020E486E380E476EAD0EE82ED3
:10163200FED7472EFCD7482EFAD700F06C0E68EC86
:101642000FF0100E486E390E476E0E0EE82EFED7C2
:10165200472EFCD7482EFAD7380E68EC0FF0020E50
:10166200486E380E476EAD0EE82EFED7472EFCD7D9
:10167200482EFAD700F0010E68EC0FF0020E486E09
:10168200380E476EAD0EE82EFED7472EFCD7482EF9
:10169200FAD700F00C0E68EC0FF0020E486E380E0E
:1016A200476EAD0EE82EFED7472EFCD7482EFAD74E
:1016B20000F01200FACF30F0FBCF31F0E9CF32F078
:1016C200EACF33F0E1CF34F0E2CF35F0D9CF36F0C4
:1016D200DACF37F0F3CF38F0F4CF39F0F6CF3AF073
:1016E200F7CF3BF0F8CF3CF0F5CF3DF049C03EF0EC
:1016F2004AC03FF04BC040F04CC041F0F2A435D09C
:101702006D0ED76E840ED66EF2940001934B942B1D
:10171200E505E611D8A40ED0E00EE95D980EEA596F
:10172200D8B005D0190EE927000EEA231ED0E569CC
:10173200E6691BD0E70E2C6EFF0E2D6EE9C02EF06F
:10174200EAC02FF02C502E262D502F22540E2E5C44
:101752008E0E2F58D8A005D0190EE95F000EEA5B55
:1017620004D0000EE66F010EE56F41C04CF040C0A0
:101772004BF03FC04AF03EC049F03DC0F5FF3CC0CF
:10178200F8FF3BC0F7FF3AC0F6FF39C0F4FF38C09C
:10179200F3FF37C0DAFF36C0D9FF35C0E2FF34C0ED
:1017A200E1FF33C0EAFF32C0E9FF31C0FBFF30C0C6
:1017B200FAFF49921100920E45EC0DF045C099F0E6
:1017C20046C09AF0000E456E0A0E446E99C0DAF0D9
:1017D2009AC0DBF0040E0001DC6FD890DB33DA3301
:1017E200DC2FFBD7DAC042F0DBC043F0B5EC0EF0E1
:1017F20042C0D5F043C0D6F0000E0001D86F0A0EE9
:10180200D76F06EC0FF0D5C0DDF0D6C0DEF00001D8
:10181200DD51300F786F785149EC0FF099C0DAF052
:101822009AC0DBF0040E0001DC6FD890DB33DA33B0
:10183200DC2FFBD7DAC0D5F0DBC0D6F0000ED86FB4
:101842000A0ED76F06EC0FF0D5C0DDF0D6C0DEF081
:101852000001DD51300F796F795149EC0FF02E0EF6
:1018620049EC0FF00F0E00019915426E436A000E0B
:10187200456E0A0E446E9FEC0FF042C0DDF043C08D
:10188200DEF0DDC0DAF0DEC0DBF0040E0001DC6F5A
:10189200D890DB33DA33DC2FFBD7DAC0DDF0DBC0E4
:1018A200DEF0DD51300F7A6F7A5149EC0FF0120001
:1018B2009E0E45EC0DF045C097F046C098F0000E24
:1018C200456E0A0E446E97C0DAF098C0DBF0040E43
:1018D2000001DC6FD890DB33DA33DC2FFBD7DAC0C0
:1018E20042F0DBC043F0B5EC0EF042C0D5F043C08D
:1018F200D6F0000E0001D86F0A0ED76F06EC0FF07B
:10190200D5C0DDF0D6C0DEF00001DD51300F786FBA
:10191200785149EC0FF097C0DAF098C0DBF0040E72
:101922000001DC6FD890DB33DA33DC2FFBD7DAC06F
:10193200D5F0DBC0D6F0000ED86F0A0ED76F06ECDA
:101942000FF0D5C0DDF0D6C0DEF00001DD51300F62
:10195200796F795149EC0FF02E0E49EC0FF00F0E12
:1019620000019715426E436A000E456E0A0E446EE0
:101972009FEC0FF042C0DDF043C0DEF0DDC0DAF0D4
:10198200DEC0DBF0040E0001DC6FD890DB33DA330B
:10199200DC2FFBD7DAC0DDF0DBC0DEF0DD51300F2B
:1019A2007A6F7A5149EC0FF012000101A735A83580
:1019B200476E4750D8A409D0000EA56F000EA66F3F
:1019C200000EA76F000EA86F1200A5C1A9F1A6C153
:1019D200AAF1A7C1ABF1A8C1ACF1200E05D0D890F5
:1019E200AC33AB33AA33A933E82EF9D7A951466EEB
:1019F200A78FFF0EA517FF0EA617FF0EA717000E43
:101A0200A817960E475E47AE16D04750800A970F2A
:101A1200D8B009D0000EA56F000EA66F000EA76FFA
:101A2200000EA86F1200D890A833A733A633A533AF
:101A3200473EF9D715D01F0E47640FD0000EA56F91
:101A4200000EA66F000EA76F000EA86F1200D890AE
:101A5200A537A637A737A83747064750D8A4F7D7E0
:101A62004650D8B408D0A81FA71FA61FA56D000E08
:101A7200A623A723A823A5C1A5F1A6C1A6F1A7C1A4
:101A8200A7F1A8C1A8F112000001D76FD7EC0FF09F
:101A9200D7C043F0446ACEEC0FF0000E446E000E45
:101AA200436ECEEC0FF0D7EC0FF0010ED7C047F02B
:101AB200486A4710436E4850446ECEEC0FF04E0E0B
:101AC200476EEB0EE82EFED7472EFCD700F09E960F
:101AD200C586C5B6FED7C9CFD8F0C59AC58800015C
:101AE200D851476E486A473A483AF00E481647506E
:101AF2000F0B4812F00E471647C0D5F048C0D6F07B
:101B0200100E476E940EE82EFED7472EFCD700D05B
:101B1200C586C5B6FED7C9CFD8F0D8C047F0473A78
:101B22000F0E471647500001D513C9EC0FF0D3EC46
:101B32000FF0D5C045F0D6C046F01200000E426E3E
:101B4200000E436E000E446E000E456E0001D95128
:101B5200DA11DB11DC11D8B42AD0010E466E06D0A0
:101B6200D890D937DA37DB37DC37462ADCAFF8D7FB
:101B7200D8904236433644364536D951D55DDA518E
:101B8200D659DB51D759DC51D859D8A009D0D951EF
:101B9200D55FDA51D65BDB51D75BDC51D85B428033
:101BA200D890DC33DB33DA33D933462EE1D742C067
:101BB200D5F043C0D6F044C0D7F045C0D8F01200EB
:101BC200500EF66E1E0EF76E000EF86E01EE50F01D
:101BD20010EE41F00900F5CFEEFFE550E150FAE1D9
:101BE200B60EF66E1F0EF76E000EF86E00EEE5F002
:101BF20010EE06F00900F5CFEEFFE550E150FAE1F4
:101C020001EE00F0500EEE6AE806FDE100EE60F033
:101C1200600EEE6AE806FDE100EE01F02B0EEE6AC0
:101C2200E806FDE149904992000EF86E0001F1EFDD
:101C320001F0466ED7EC0FF046C043F0446ACEEC9A
:101C42000FF0100E456E940EE82EFED7452EFCD7EF
:101C520000D0000E446E010E436ECEEC0FF0100E5B
:101C6200456E940EE82EFED7452EFCD700D0000E0E
:101C7200446E000E436ECEEC0FF0100E456E940EC5
:101C8200E82EFED7452EFCD700D0C9EC0FF0D3ECDE
:101C92000FF09C0E456ED70EE82EFED7452EFCD7D0
:101CA20000F01200000E486E000E476E000E256E08
:101CB200FE0ECF6E120ECE6EFE0ECF6E120ECE6ED8
:101CC200FE0ECF6E120ECE6EFE0ECF6E120ECE6EC8
:101CD2009E909D800AD0C80E2518D8A406D0C80EA2
:101CE2004726000E4822000E256E25504724446EDA
:101CF200000E4820456E4250445C4550800A466EB4
:101D02004350800A4658D8A0E6D79D901200280E6C
:101D1200C66E000EC56E000E0001D56F6C0ED66F3A
:101D2200DC0ED76F020ED86FDDC0E1F0DEC0E2F04C
:101D3200DFC0E3F0E0C0E4F0020ED890E137E23712
:101D4200E337E437E82EF9D7E1C0D9F0E2C0DAF0A0
:101D5200E3C0DBF0E4C0DCF09FEC0DF00001D50540
:101D6200C86E000EC76E1200000E486E000E476E5F
:101D720044504510D8B41CD0010E466E04D0D89001
:101D820044364536462A45AEFAD7D89047364836C5
:101D92004450425C45504358D8A005D04450425E5E
:101DA2004550435A4780D89045324432462EEDD7AB
:101DB20047C042F048C043F01200000E0001D76F46
:101DC200D751010D47C0D5F048C0D6F0F350D52702
:101DD200F450D623D5C0F6FFD6C0F7FFF86A020E3C
:101DE200F76403D00800F55005D0F6CFE9FFF7CF2E
:101DF200EAFFEF500001D86FD851D8B41200D85181
:101E020049EC0FF00001D72BDBD70001D751D811D5
:101E1200D8B418D0010ED96F04D0D890D737D8379C
:101E2200D92BD8AFFAD7D751D55DD851D659D8A02A
:101E320004D0D751D55FD851D65BD890D833D73399
:101E4200D92FF1D7D5C0D5F0D6C0D6F0120048654B
:101E52006C6C6F322C2050494320576F726C642196
:101E62000048656C6C6F312C2050494320576F72CB
:101E72006C64210057616B2D746563680048656C62
:0F1E82006C6F2C2050494320576F726C64210005
:101E9200466ED7EC0FF0000E446E7C0E436ECEEC15
:101EA2000FF0000E446E400E436ECEEC0FF046C0B3
:101EB20043F0446ACEEC0FF0D3EC0FF0100E456EF7
:101EC200940EE82EFED7452EFCD700D01200466EA7
:101ED200D7EC0FF0000E446E7C0E436ECEEC0FF08A
:101EE200000E446E000E436ECEEC0FF046C043F07F
:101EF200446ACEEC0FF0D3EC0FF0100E456E940E48
:101F0200E82EFED7452EFCD700D012000001DF518B
:101F1200E011E111E211D8B408D0000EDF1B000E6F
:101F2200E01B000EE11B800EE21BDFC0DFF0E0C011
:101F3200E0F0E1C0E1F0E2C0E2F0120042504402FF
:101F4200F3CF46F0F4CF47F042504502F350472614
:101F520043504402F350472646C042F047C043F084
:101F62001200C7B4FED7C5CF42F01F0E4216D8B436
:101F72001200F7D7700ED36E000E7E6E500E936E67
:101F820012009E0E1AEC0EF0920E1AEC0EF01200D7
:101F9200C58AC588C5A81200FDD7B2EC0FF043C0B0
:101FA200C9FF1200B2EC0FF0C5841200B2EC0FF0C0
:0A1FB200C580120001000203548EE6
:020000040030CA
:080000000035011EFF0081FF25
:00000001FF
